{
  "_format": "hh-sol-artifact-1",
  "contractName": "MarketPlace",
  "sourceName": "contracts/MarketPlace.sol",
  "abi": [
    {
      "inputs": [],
      "stateMutability": "nonpayable",
      "type": "constructor"
    },
    {
      "anonymous": false,
      "inputs": [
        {
          "indexed": true,
          "internalType": "address",
          "name": "owner",
          "type": "address"
        },
        {
          "indexed": true,
          "internalType": "address",
          "name": "approved",
          "type": "address"
        },
        {
          "indexed": true,
          "internalType": "uint256",
          "name": "tokenId",
          "type": "uint256"
        }
      ],
      "name": "Approval",
      "type": "event"
    },
    {
      "anonymous": false,
      "inputs": [
        {
          "indexed": true,
          "internalType": "address",
          "name": "owner",
          "type": "address"
        },
        {
          "indexed": true,
          "internalType": "address",
          "name": "operator",
          "type": "address"
        },
        {
          "indexed": false,
          "internalType": "bool",
          "name": "approved",
          "type": "bool"
        }
      ],
      "name": "ApprovalForAll",
      "type": "event"
    },
    {
      "anonymous": false,
      "inputs": [
        {
          "indexed": true,
          "internalType": "uint256",
          "name": "tokenId",
          "type": "uint256"
        },
        {
          "indexed": false,
          "internalType": "address",
          "name": "listedBy",
          "type": "address"
        },
        {
          "indexed": false,
          "internalType": "uint256",
          "name": "price",
          "type": "uint256"
        }
      ],
      "name": "TokenListingSuccess",
      "type": "event"
    },
    {
      "anonymous": false,
      "inputs": [
        {
          "indexed": true,
          "internalType": "address",
          "name": "from",
          "type": "address"
        },
        {
          "indexed": true,
          "internalType": "address",
          "name": "to",
          "type": "address"
        },
        {
          "indexed": true,
          "internalType": "uint256",
          "name": "tokenId",
          "type": "uint256"
        }
      ],
      "name": "Transfer",
      "type": "event"
    },
    {
      "inputs": [
        {
          "internalType": "address",
          "name": "to",
          "type": "address"
        },
        {
          "internalType": "uint256",
          "name": "tokenId",
          "type": "uint256"
        }
      ],
      "name": "approve",
      "outputs": [],
      "stateMutability": "nonpayable",
      "type": "function"
    },
    {
      "inputs": [
        {
          "internalType": "address",
          "name": "owner",
          "type": "address"
        }
      ],
      "name": "balanceOf",
      "outputs": [
        {
          "internalType": "uint256",
          "name": "",
          "type": "uint256"
        }
      ],
      "stateMutability": "view",
      "type": "function"
    },
    {
      "inputs": [
        {
          "internalType": "uint256",
          "name": "tokenId",
          "type": "uint256"
        }
      ],
      "name": "buyToken",
      "outputs": [],
      "stateMutability": "payable",
      "type": "function"
    },
    {
      "inputs": [],
      "name": "countOFTokens",
      "outputs": [
        {
          "internalType": "uint256",
          "name": "",
          "type": "uint256"
        }
      ],
      "stateMutability": "view",
      "type": "function"
    },
    {
      "inputs": [],
      "name": "countOfListedTokens",
      "outputs": [
        {
          "internalType": "uint256",
          "name": "",
          "type": "uint256"
        }
      ],
      "stateMutability": "view",
      "type": "function"
    },
    {
      "inputs": [
        {
          "internalType": "string",
          "name": "tokenURI",
          "type": "string"
        },
        {
          "internalType": "string",
          "name": "name",
          "type": "string"
        }
      ],
      "name": "createToken",
      "outputs": [
        {
          "internalType": "uint256",
          "name": "",
          "type": "uint256"
        }
      ],
      "stateMutability": "nonpayable",
      "type": "function"
    },
    {
      "inputs": [],
      "name": "getAllTokens",
      "outputs": [
        {
          "components": [
            {
              "internalType": "uint256",
              "name": "tokenId",
              "type": "uint256"
            },
            {
              "internalType": "string",
              "name": "name",
              "type": "string"
            },
            {
              "internalType": "address",
              "name": "currOwner",
              "type": "address"
            },
            {
              "internalType": "address",
              "name": "prevOwner",
              "type": "address"
            },
            {
              "internalType": "uint256",
              "name": "price",
              "type": "uint256"
            },
            {
              "internalType": "bool",
              "name": "currentlyListed",
              "type": "bool"
            }
          ],
          "internalType": "struct MarketPlace.NFT[]",
          "name": "",
          "type": "tuple[]"
        }
      ],
      "stateMutability": "view",
      "type": "function"
    },
    {
      "inputs": [
        {
          "internalType": "uint256",
          "name": "tokenId",
          "type": "uint256"
        }
      ],
      "name": "getApproved",
      "outputs": [
        {
          "internalType": "address",
          "name": "",
          "type": "address"
        }
      ],
      "stateMutability": "view",
      "type": "function"
    },
    {
      "inputs": [],
      "name": "getListedTokens",
      "outputs": [
        {
          "components": [
            {
              "internalType": "uint256",
              "name": "tokenId",
              "type": "uint256"
            },
            {
              "internalType": "string",
              "name": "name",
              "type": "string"
            },
            {
              "internalType": "address",
              "name": "currOwner",
              "type": "address"
            },
            {
              "internalType": "address",
              "name": "prevOwner",
              "type": "address"
            },
            {
              "internalType": "uint256",
              "name": "price",
              "type": "uint256"
            },
            {
              "internalType": "bool",
              "name": "currentlyListed",
              "type": "bool"
            }
          ],
          "internalType": "struct MarketPlace.NFT[]",
          "name": "",
          "type": "tuple[]"
        }
      ],
      "stateMutability": "view",
      "type": "function"
    },
    {
      "inputs": [],
      "name": "getListingPrice",
      "outputs": [
        {
          "internalType": "uint256",
          "name": "",
          "type": "uint256"
        }
      ],
      "stateMutability": "view",
      "type": "function"
    },
    {
      "inputs": [
        {
          "internalType": "address",
          "name": "user",
          "type": "address"
        }
      ],
      "name": "getMyTokens",
      "outputs": [
        {
          "components": [
            {
              "internalType": "uint256",
              "name": "tokenId",
              "type": "uint256"
            },
            {
              "internalType": "string",
              "name": "name",
              "type": "string"
            },
            {
              "internalType": "address",
              "name": "currOwner",
              "type": "address"
            },
            {
              "internalType": "address",
              "name": "prevOwner",
              "type": "address"
            },
            {
              "internalType": "uint256",
              "name": "price",
              "type": "uint256"
            },
            {
              "internalType": "bool",
              "name": "currentlyListed",
              "type": "bool"
            }
          ],
          "internalType": "struct MarketPlace.NFT[]",
          "name": "",
          "type": "tuple[]"
        }
      ],
      "stateMutability": "view",
      "type": "function"
    },
    {
      "inputs": [
        {
          "internalType": "uint256",
          "name": "tokenId",
          "type": "uint256"
        }
      ],
      "name": "getTokenPrice",
      "outputs": [
        {
          "internalType": "uint256",
          "name": "",
          "type": "uint256"
        }
      ],
      "stateMutability": "view",
      "type": "function"
    },
    {
      "inputs": [
        {
          "internalType": "address",
          "name": "owner",
          "type": "address"
        },
        {
          "internalType": "address",
          "name": "operator",
          "type": "address"
        }
      ],
      "name": "isApprovedForAll",
      "outputs": [
        {
          "internalType": "bool",
          "name": "",
          "type": "bool"
        }
      ],
      "stateMutability": "view",
      "type": "function"
    },
    {
      "inputs": [
        {
          "internalType": "uint256",
          "name": "tokenId",
          "type": "uint256"
        },
        {
          "internalType": "uint256",
          "name": "price",
          "type": "uint256"
        }
      ],
      "name": "listToken",
      "outputs": [],
      "stateMutability": "payable",
      "type": "function"
    },
    {
      "inputs": [],
      "name": "name",
      "outputs": [
        {
          "internalType": "string",
          "name": "",
          "type": "string"
        }
      ],
      "stateMutability": "view",
      "type": "function"
    },
    {
      "inputs": [
        {
          "internalType": "uint256",
          "name": "tokenId",
          "type": "uint256"
        }
      ],
      "name": "ownerOf",
      "outputs": [
        {
          "internalType": "address",
          "name": "",
          "type": "address"
        }
      ],
      "stateMutability": "view",
      "type": "function"
    },
    {
      "inputs": [
        {
          "internalType": "address",
          "name": "from",
          "type": "address"
        },
        {
          "internalType": "address",
          "name": "to",
          "type": "address"
        },
        {
          "internalType": "uint256",
          "name": "tokenId",
          "type": "uint256"
        }
      ],
      "name": "safeTransferFrom",
      "outputs": [],
      "stateMutability": "nonpayable",
      "type": "function"
    },
    {
      "inputs": [
        {
          "internalType": "address",
          "name": "from",
          "type": "address"
        },
        {
          "internalType": "address",
          "name": "to",
          "type": "address"
        },
        {
          "internalType": "uint256",
          "name": "tokenId",
          "type": "uint256"
        },
        {
          "internalType": "bytes",
          "name": "data",
          "type": "bytes"
        }
      ],
      "name": "safeTransferFrom",
      "outputs": [],
      "stateMutability": "nonpayable",
      "type": "function"
    },
    {
      "inputs": [
        {
          "internalType": "address",
          "name": "operator",
          "type": "address"
        },
        {
          "internalType": "bool",
          "name": "approved",
          "type": "bool"
        }
      ],
      "name": "setApprovalForAll",
      "outputs": [],
      "stateMutability": "nonpayable",
      "type": "function"
    },
    {
      "inputs": [
        {
          "internalType": "bytes4",
          "name": "interfaceId",
          "type": "bytes4"
        }
      ],
      "name": "supportsInterface",
      "outputs": [
        {
          "internalType": "bool",
          "name": "",
          "type": "bool"
        }
      ],
      "stateMutability": "view",
      "type": "function"
    },
    {
      "inputs": [],
      "name": "symbol",
      "outputs": [
        {
          "internalType": "string",
          "name": "",
          "type": "string"
        }
      ],
      "stateMutability": "view",
      "type": "function"
    },
    {
      "inputs": [
        {
          "internalType": "uint256",
          "name": "tokenId",
          "type": "uint256"
        }
      ],
      "name": "tokenURI",
      "outputs": [
        {
          "internalType": "string",
          "name": "",
          "type": "string"
        }
      ],
      "stateMutability": "view",
      "type": "function"
    },
    {
      "inputs": [
        {
          "internalType": "address",
          "name": "from",
          "type": "address"
        },
        {
          "internalType": "address",
          "name": "to",
          "type": "address"
        },
        {
          "internalType": "uint256",
          "name": "tokenId",
          "type": "uint256"
        }
      ],
      "name": "transferFrom",
      "outputs": [],
      "stateMutability": "nonpayable",
      "type": "function"
    },
    {
      "inputs": [
        {
          "internalType": "uint256",
          "name": "newPrice",
          "type": "uint256"
        }
      ],
      "name": "updateListPrice",
      "outputs": [],
      "stateMutability": "nonpayable",
      "type": "function"
    },
    {
      "inputs": [
        {
          "internalType": "uint256",
          "name": "tokenId",
          "type": "uint256"
        },
        {
          "internalType": "uint256",
          "name": "newPrice",
          "type": "uint256"
        }
      ],
      "name": "updateTokenPrice",
      "outputs": [],
      "stateMutability": "nonpayable",
      "type": "function"
    }
  ],
  "bytecode": "0x60806040523480156200001157600080fd5b506040518060400160405280600981526020017f736b614d61726b657400000000000000000000000000000000000000000000008152506040518060400160405280600381526020017f534b41000000000000000000000000000000000000000000000000000000000081525081600090805190602001906200009692919062000104565b508060019080519060200190620000af92919062000104565b50505033600760006101000a81548173ffffffffffffffffffffffffffffffffffffffff021916908373ffffffffffffffffffffffffffffffffffffffff1602179055506305f5e100600a8190555062000219565b8280546200011290620001b4565b90600052602060002090601f01602090048101928262000136576000855562000182565b82601f106200015157805160ff191683800117855562000182565b8280016001018555821562000182579182015b828111156200018157825182559160200191906001019062000164565b5b50905062000191919062000195565b5090565b5b80821115620001b057600081600090555060010162000196565b5090565b60006002820490506001821680620001cd57607f821691505b60208210811415620001e457620001e3620001ea565b5b50919050565b7f4e487b7100000000000000000000000000000000000000000000000000000000600052602260045260246000fd5b6140e080620002296000396000f3fe6080604052600436106101665760003560e01c80636352211e116100d1578063a22cb4651161008a578063c322579c11610064578063c322579c14610534578063c457fb371461055d578063c87b56dd1461059a578063e985e9c5146105d757610166565b8063a22cb465146104b7578063b88d4fde146104e0578063bc5557c61461050957610166565b80636352211e146103a257806370a08231146103df57806375c1631d1461041c578063897925f5146104385780638a2221ad1461046157806395d89b411461048c57610166565b806323b872dd1161012357806323b872dd146102a15780632a5c792a146102ca5780632ba996a5146102f55780632d296bf1146103205780632f2f2d561461033c57806342842e0e1461037957610166565b806301ffc9a71461016b57806306fdde03146101a8578063081812fc146101d3578063095ea7b31461021057806312e85585146102395780631751659214610264575b600080fd5b34801561017757600080fd5b50610192600480360381019061018d9190612e59565b610614565b60405161019f9190613509565b60405180910390f35b3480156101b457600080fd5b506101bd6106f6565b6040516101ca9190613524565b60405180910390f35b3480156101df57600080fd5b506101fa60048036038101906101f59190612f2b565b610788565b6040516102079190613457565b60405180910390f35b34801561021c57600080fd5b5061023760048036038101906102329190612e19565b6107ce565b005b34801561024557600080fd5b5061024e6108e6565b60405161025b9190613766565b60405180910390f35b34801561027057600080fd5b5061028b60048036038101906102869190612c96565b6108f0565b60405161029891906134e7565b60405180910390f35b3480156102ad57600080fd5b506102c860048036038101906102c39190612d03565b610c45565b005b3480156102d657600080fd5b506102df610ca5565b6040516102ec91906134e7565b60405180910390f35b34801561030157600080fd5b5061030a610ef5565b60405161031791906134e7565b60405180910390f35b61033a60048036038101906103359190612f2b565b611186565b005b34801561034857600080fd5b50610363600480360381019061035e9190612eb3565b6113c9565b6040516103709190613766565b60405180910390f35b34801561038557600080fd5b506103a0600480360381019061039b9190612d03565b611554565b005b3480156103ae57600080fd5b506103c960048036038101906103c49190612f2b565b611574565b6040516103d69190613457565b60405180910390f35b3480156103eb57600080fd5b5061040660048036038101906104019190612c96565b611626565b6040516104139190613766565b60405180910390f35b61043660048036038101906104319190612f58565b6116de565b005b34801561044457600080fd5b5061045f600480360381019061045a9190612f58565b611894565b005b34801561046d57600080fd5b50610476611927565b6040516104839190613766565b60405180910390f35b34801561049857600080fd5b506104a1611938565b6040516104ae9190613524565b60405180910390f35b3480156104c357600080fd5b506104de60048036038101906104d99190612dd9565b6119ca565b005b3480156104ec57600080fd5b5061050760048036038101906105029190612d56565b6119e0565b005b34801561051557600080fd5b5061051e611a42565b60405161052b9190613766565b60405180910390f35b34801561054057600080fd5b5061055b60048036038101906105569190612f2b565b611a53565b005b34801561056957600080fd5b50610584600480360381019061057f9190612f2b565b611aed565b6040516105919190613766565b60405180910390f35b3480156105a657600080fd5b506105c160048036038101906105bc9190612f2b565b611b0d565b6040516105ce9190613524565b60405180910390f35b3480156105e357600080fd5b506105fe60048036038101906105f99190612cc3565b611c20565b60405161060b9190613509565b60405180910390f35b60007f80ac58cd000000000000000000000000000000000000000000000000000000007bffffffffffffffffffffffffffffffffffffffffffffffffffffffff1916827bffffffffffffffffffffffffffffffffffffffffffffffffffffffff191614806106df57507f5b5e139f000000000000000000000000000000000000000000000000000000007bffffffffffffffffffffffffffffffffffffffffffffffffffffffff1916827bffffffffffffffffffffffffffffffffffffffffffffffffffffffff1916145b806106ef57506106ee82611cb4565b5b9050919050565b60606000805461070590613a06565b80601f016020809104026020016040519081016040528092919081815260200182805461073190613a06565b801561077e5780601f106107535761010080835404028352916020019161077e565b820191906000526020600020905b81548152906001019060200180831161076157829003601f168201915b5050505050905090565b600061079382611d1e565b6004600083815260200190815260200160002060009054906101000a900473ffffffffffffffffffffffffffffffffffffffff169050919050565b60006107d982611574565b90508073ffffffffffffffffffffffffffffffffffffffff168373ffffffffffffffffffffffffffffffffffffffff16141561084a576040517f08c379a000000000000000000000000000000000000000000000000000000000815260040161084190613706565b60405180910390fd5b8073ffffffffffffffffffffffffffffffffffffffff16610869611d69565b73ffffffffffffffffffffffffffffffffffffffff161480610898575061089781610892611d69565b611c20565b5b6108d7576040517f08c379a00000000000000000000000000000000000000000000000000000000081526004016108ce906136a6565b60405180910390fd5b6108e18383611d71565b505050565b6000600a54905090565b606060006108fe6008611e2a565b9050600080600190505b82811161099b578473ffffffffffffffffffffffffffffffffffffffff16600b600083815260200190815260200160002060020160009054906101000a900473ffffffffffffffffffffffffffffffffffffffff1673ffffffffffffffffffffffffffffffffffffffff16141561098857818061098490613a69565b9250505b808061099390613a69565b915050610908565b5060008167ffffffffffffffff8111156109b8576109b7613b9f565b5b6040519080825280602002602001820160405280156109f157816020015b6109de612a46565b8152602001906001900390816109d65790505b509050600080600190505b848111610c38578673ffffffffffffffffffffffffffffffffffffffff16600b600083815260200190815260200160002060020160009054906101000a900473ffffffffffffffffffffffffffffffffffffffff1673ffffffffffffffffffffffffffffffffffffffff161415610c2557600b60008281526020019081526020016000206040518060c001604052908160008201548152602001600182018054610aa590613a06565b80601f0160208091040260200160405190810160405280929190818152602001828054610ad190613a06565b8015610b1e5780601f10610af357610100808354040283529160200191610b1e565b820191906000526020600020905b815481529060010190602001808311610b0157829003601f168201915b505050505081526020016002820160009054906101000a900473ffffffffffffffffffffffffffffffffffffffff1673ffffffffffffffffffffffffffffffffffffffff1673ffffffffffffffffffffffffffffffffffffffff1681526020016003820160009054906101000a900473ffffffffffffffffffffffffffffffffffffffff1673ffffffffffffffffffffffffffffffffffffffff1673ffffffffffffffffffffffffffffffffffffffff168152602001600482015481526020016005820160009054906101000a900460ff161515151581525050838381518110610c0b57610c0a613b70565b5b60200260200101819052508180610c2190613a69565b9250505b8080610c3090613a69565b9150506109fc565b5081945050505050919050565b610c56610c50611d69565b82611e38565b610c95576040517f08c379a0000000000000000000000000000000000000000000000000000000008152600401610c8c90613726565b60405180910390fd5b610ca0838383611ecd565b505050565b60606000610cb36008611e2a565b905060008167ffffffffffffffff811115610cd157610cd0613b9f565b5b604051908082528060200260200182016040528015610d0a57816020015b610cf7612a46565b815260200190600190039081610cef5790505b50905060005b82811015610eec576000600182610d279190613895565b90506000600b60008381526020019081526020016000209050806040518060c001604052908160008201548152602001600182018054610d6690613a06565b80601f0160208091040260200160405190810160405280929190818152602001828054610d9290613a06565b8015610ddf5780601f10610db457610100808354040283529160200191610ddf565b820191906000526020600020905b815481529060010190602001808311610dc257829003601f168201915b505050505081526020016002820160009054906101000a900473ffffffffffffffffffffffffffffffffffffffff1673ffffffffffffffffffffffffffffffffffffffff1673ffffffffffffffffffffffffffffffffffffffff1681526020016003820160009054906101000a900473ffffffffffffffffffffffffffffffffffffffff1673ffffffffffffffffffffffffffffffffffffffff1673ffffffffffffffffffffffffffffffffffffffff168152602001600482015481526020016005820160009054906101000a900460ff161515151581525050848481518110610ecc57610ecb613b70565b5b602002602001018190525050508080610ee490613a69565b915050610d10565b50809250505090565b60606000610f036008611e2a565b90506000610f116009611e2a565b905060008167ffffffffffffffff811115610f2f57610f2e613b9f565b5b604051908082528060200260200182016040528015610f6857816020015b610f55612a46565b815260200190600190039081610f4d5790505b509050600080600190505b84811161117b5760011515600b600083815260200190815260200160002060050160009054906101000a900460ff1615151415611168576000600b60008381526020019081526020016000209050806040518060c001604052908160008201548152602001600182018054610fe790613a06565b80601f016020809104026020016040519081016040528092919081815260200182805461101390613a06565b80156110605780601f1061103557610100808354040283529160200191611060565b820191906000526020600020905b81548152906001019060200180831161104357829003601f168201915b505050505081526020016002820160009054906101000a900473ffffffffffffffffffffffffffffffffffffffff1673ffffffffffffffffffffffffffffffffffffffff1673ffffffffffffffffffffffffffffffffffffffff1681526020016003820160009054906101000a900473ffffffffffffffffffffffffffffffffffffffff1673ffffffffffffffffffffffffffffffffffffffff1673ffffffffffffffffffffffffffffffffffffffff168152602001600482015481526020016005820160009054906101000a900460ff16151515158152505084848151811061114d5761114c613b70565b5b6020026020010181905250828061116390613a69565b935050505b808061117390613a69565b915050610f73565b508194505050505090565b6000600b600083815260200190815260200160002060040154905060011515600b600084815260200190815260200160002060050160009054906101000a900460ff1615151461120b576040517f08c379a000000000000000000000000000000000000000000000000000000000815260040161120290613606565b60405180910390fd5b8034101561124e576040517f08c379a000000000000000000000000000000000000000000000000000000000815260040161124590613746565b60405180910390fd5b6000600b600084815260200190815260200160002060020160009054906101000a900473ffffffffffffffffffffffffffffffffffffffff1690506000339050611299828286611ecd565b6000600b600086815260200190815260200160002060050160006101000a81548160ff02191690831515021790555080600b600086815260200190815260200160002060020160006101000a81548173ffffffffffffffffffffffffffffffffffffffff021916908373ffffffffffffffffffffffffffffffffffffffff16021790555081600b600086815260200190815260200160002060030160006101000a81548173ffffffffffffffffffffffffffffffffffffffff021916908373ffffffffffffffffffffffffffffffffffffffff16021790555061137c6009612134565b8173ffffffffffffffffffffffffffffffffffffffff166108fc849081150290604051600060405180830381858888f193505050501580156113c2573d6000803e3d6000fd5b5050505050565b60006113d56008612190565b60006113e16008611e2a565b90506113ed33826121a6565b6113f781856121c4565b6040518060c001604052808281526020018481526020013373ffffffffffffffffffffffffffffffffffffffff168152602001600073ffffffffffffffffffffffffffffffffffffffff1681526020016000815260200160001515815250600b600083815260200190815260200160002060008201518160000155602082015181600101908051906020019061148e929190612aaa565b5060408201518160020160006101000a81548173ffffffffffffffffffffffffffffffffffffffff021916908373ffffffffffffffffffffffffffffffffffffffff16021790555060608201518160030160006101000a81548173ffffffffffffffffffffffffffffffffffffffff021916908373ffffffffffffffffffffffffffffffffffffffff1602179055506080820151816004015560a08201518160050160006101000a81548160ff0219169083151502179055509050508091505092915050565b61156f838383604051806020016040528060008152506119e0565b505050565b6000806002600084815260200190815260200160002060009054906101000a900473ffffffffffffffffffffffffffffffffffffffff169050600073ffffffffffffffffffffffffffffffffffffffff168173ffffffffffffffffffffffffffffffffffffffff16141561161d576040517f08c379a0000000000000000000000000000000000000000000000000000000008152600401611614906136e6565b60405180910390fd5b80915050919050565b60008073ffffffffffffffffffffffffffffffffffffffff168273ffffffffffffffffffffffffffffffffffffffff161415611697576040517f08c379a000000000000000000000000000000000000000000000000000000000815260040161168e90613666565b60405180910390fd5b600360008373ffffffffffffffffffffffffffffffffffffffff1673ffffffffffffffffffffffffffffffffffffffff168152602001908152602001600020549050919050565b600a54341015611723576040517f08c379a000000000000000000000000000000000000000000000000000000000815260040161171a90613546565b60405180910390fd5b6000600b600084815260200190815260200160002060020160009054906101000a900473ffffffffffffffffffffffffffffffffffffffff1690508073ffffffffffffffffffffffffffffffffffffffff163373ffffffffffffffffffffffffffffffffffffffff161461179657600080fd5b6001600b600085815260200190815260200160002060050160006101000a81548160ff02191690831515021790555081600b6000858152602001908152602001600020600401819055506117ea6009612190565b600760009054906101000a900473ffffffffffffffffffffffffffffffffffffffff1673ffffffffffffffffffffffffffffffffffffffff166108fc600a549081150290604051600060405180830381858888f19350505050158015611854573d6000803e3d6000fd5b50827f77c1432afc94806c26ae3f6e9f65698728ea5f2b7d60d317ea07651d9178f0dc33846040516118879291906134be565b60405180910390a2505050565b6000600b600084815260200190815260200160002060020160009054906101000a900473ffffffffffffffffffffffffffffffffffffffff1690503373ffffffffffffffffffffffffffffffffffffffff168173ffffffffffffffffffffffffffffffffffffffff161461190757600080fd5b81600b600085815260200190815260200160002060040181905550505050565b60006119336009611e2a565b905090565b60606001805461194790613a06565b80601f016020809104026020016040519081016040528092919081815260200182805461197390613a06565b80156119c05780601f10611995576101008083540402835291602001916119c0565b820191906000526020600020905b8154815290600101906020018083116119a357829003601f168201915b5050505050905090565b6119dc6119d5611d69565b8383612238565b5050565b6119f16119eb611d69565b83611e38565b611a30576040517f08c379a0000000000000000000000000000000000000000000000000000000008152600401611a2790613726565b60405180910390fd5b611a3c848484846123a5565b50505050565b6000611a4e6008611e2a565b905090565b600760009054906101000a900473ffffffffffffffffffffffffffffffffffffffff1673ffffffffffffffffffffffffffffffffffffffff163373ffffffffffffffffffffffffffffffffffffffff1614611ae3576040517f08c379a0000000000000000000000000000000000000000000000000000000008152600401611ada906135e6565b60405180910390fd5b80600a8190555050565b6000600b6000838152602001908152602001600020600401549050919050565b6060611b1882611d1e565b6000600660008481526020019081526020016000208054611b3890613a06565b80601f0160208091040260200160405190810160405280929190818152602001828054611b6490613a06565b8015611bb15780601f10611b8657610100808354040283529160200191611bb1565b820191906000526020600020905b815481529060010190602001808311611b9457829003601f168201915b505050505090506000611bc2612401565b9050600081511415611bd8578192505050611c1b565b600082511115611c0d578082604051602001611bf5929190613433565b60405160208183030381529060405292505050611c1b565b611c1684612418565b925050505b919050565b6000600560008473ffffffffffffffffffffffffffffffffffffffff1673ffffffffffffffffffffffffffffffffffffffff16815260200190815260200160002060008373ffffffffffffffffffffffffffffffffffffffff1673ffffffffffffffffffffffffffffffffffffffff16815260200190815260200160002060009054906101000a900460ff16905092915050565b60007f01ffc9a7000000000000000000000000000000000000000000000000000000007bffffffffffffffffffffffffffffffffffffffffffffffffffffffff1916827bffffffffffffffffffffffffffffffffffffffffffffffffffffffff1916149050919050565b611d2781612480565b611d66576040517f08c379a0000000000000000000000000000000000000000000000000000000008152600401611d5d906136e6565b60405180910390fd5b50565b600033905090565b816004600083815260200190815260200160002060006101000a81548173ffffffffffffffffffffffffffffffffffffffff021916908373ffffffffffffffffffffffffffffffffffffffff160217905550808273ffffffffffffffffffffffffffffffffffffffff16611de483611574565b73ffffffffffffffffffffffffffffffffffffffff167f8c5be1e5ebec7d5bd14f71427d1e84f3dd0314c0f7b2291e5b200ac8c7c3b92560405160405180910390a45050565b600081600001549050919050565b600080611e4483611574565b90508073ffffffffffffffffffffffffffffffffffffffff168473ffffffffffffffffffffffffffffffffffffffff161480611e865750611e858185611c20565b5b80611ec457508373ffffffffffffffffffffffffffffffffffffffff16611eac84610788565b73ffffffffffffffffffffffffffffffffffffffff16145b91505092915050565b8273ffffffffffffffffffffffffffffffffffffffff16611eed82611574565b73ffffffffffffffffffffffffffffffffffffffff1614611f43576040517f08c379a0000000000000000000000000000000000000000000000000000000008152600401611f3a906135a6565b60405180910390fd5b600073ffffffffffffffffffffffffffffffffffffffff168273ffffffffffffffffffffffffffffffffffffffff161415611fb3576040517f08c379a0000000000000000000000000000000000000000000000000000000008152600401611faa90613626565b60405180910390fd5b611fbe8383836124ec565b611fc9600082611d71565b6001600360008573ffffffffffffffffffffffffffffffffffffffff1673ffffffffffffffffffffffffffffffffffffffff1681526020019081526020016000206000828254612019919061391c565b925050819055506001600360008473ffffffffffffffffffffffffffffffffffffffff1673ffffffffffffffffffffffffffffffffffffffff16815260200190815260200160002060008282546120709190613895565b92505081905550816002600083815260200190815260200160002060006101000a81548173ffffffffffffffffffffffffffffffffffffffff021916908373ffffffffffffffffffffffffffffffffffffffff160217905550808273ffffffffffffffffffffffffffffffffffffffff168473ffffffffffffffffffffffffffffffffffffffff167fddf252ad1be2c89b69c2b068fc378daa952ba7f163c4a11628f55a4df523b3ef60405160405180910390a461212f8383836124f1565b505050565b60008160000154905060008111612180576040517f08c379a000000000000000000000000000000000000000000000000000000000815260040161217790613566565b60405180910390fd5b6001810382600001819055505050565b6001816000016000828254019250508190555050565b6121c08282604051806020016040528060008152506124f6565b5050565b6121cd82612480565b61220c576040517f08c379a000000000000000000000000000000000000000000000000000000000815260040161220390613686565b60405180910390fd5b80600660008481526020019081526020016000209080519060200190612233929190612aaa565b505050565b8173ffffffffffffffffffffffffffffffffffffffff168373ffffffffffffffffffffffffffffffffffffffff1614156122a7576040517f08c379a000000000000000000000000000000000000000000000000000000000815260040161229e90613646565b60405180910390fd5b80600560008573ffffffffffffffffffffffffffffffffffffffff1673ffffffffffffffffffffffffffffffffffffffff16815260200190815260200160002060008473ffffffffffffffffffffffffffffffffffffffff1673ffffffffffffffffffffffffffffffffffffffff16815260200190815260200160002060006101000a81548160ff0219169083151502179055508173ffffffffffffffffffffffffffffffffffffffff168373ffffffffffffffffffffffffffffffffffffffff167f17307eab39ab6107e8899845ad3d59bd9653f200f220920489ca2b5937696c31836040516123989190613509565b60405180910390a3505050565b6123b0848484611ecd565b6123bc84848484612551565b6123fb576040517f08c379a00000000000000000000000000000000000000000000000000000000081526004016123f290613586565b60405180910390fd5b50505050565b606060405180602001604052806000815250905090565b606061242382611d1e565b600061242d612401565b9050600081511161244d5760405180602001604052806000815250612478565b80612457846126e8565b604051602001612468929190613433565b6040516020818303038152906040525b915050919050565b60008073ffffffffffffffffffffffffffffffffffffffff166002600084815260200190815260200160002060009054906101000a900473ffffffffffffffffffffffffffffffffffffffff1673ffffffffffffffffffffffffffffffffffffffff1614159050919050565b505050565b505050565b6125008383612849565b61250d6000848484612551565b61254c576040517f08c379a000000000000000000000000000000000000000000000000000000000815260040161254390613586565b60405180910390fd5b505050565b60006125728473ffffffffffffffffffffffffffffffffffffffff16612a23565b156126db578373ffffffffffffffffffffffffffffffffffffffff1663150b7a0261259b611d69565b8786866040518563ffffffff1660e01b81526004016125bd9493929190613472565b602060405180830381600087803b1580156125d757600080fd5b505af192505050801561260857506040513d601f19601f820116820180604052508101906126059190612e86565b60015b61268b573d8060008114612638576040519150601f19603f3d011682016040523d82523d6000602084013e61263d565b606091505b50600081511415612683576040517f08c379a000000000000000000000000000000000000000000000000000000000815260040161267a90613586565b60405180910390fd5b805181602001fd5b63150b7a0260e01b7bffffffffffffffffffffffffffffffffffffffffffffffffffffffff1916817bffffffffffffffffffffffffffffffffffffffffffffffffffffffff1916149150506126e0565b600190505b949350505050565b60606000821415612730576040518060400160405280600181526020017f30000000000000000000000000000000000000000000000000000000000000008152509050612844565b600082905060005b6000821461276257808061274b90613a69565b915050600a8261275b91906138eb565b9150612738565b60008167ffffffffffffffff81111561277e5761277d613b9f565b5b6040519080825280601f01601f1916602001820160405280156127b05781602001600182028036833780820191505090505b5090505b6000851461283d576001826127c9919061391c565b9150600a856127d89190613ab2565b60306127e49190613895565b60f81b8183815181106127fa576127f9613b70565b5b60200101907effffffffffffffffffffffffffffffffffffffffffffffffffffffffffffff1916908160001a905350600a8561283691906138eb565b94506127b4565b8093505050505b919050565b600073ffffffffffffffffffffffffffffffffffffffff168273ffffffffffffffffffffffffffffffffffffffff1614156128b9576040517f08c379a00000000000000000000000000000000000000000000000000000000081526004016128b0906136c6565b60405180910390fd5b6128c281612480565b15612902576040517f08c379a00000000000000000000000000000000000000000000000000000000081526004016128f9906135c6565b60405180910390fd5b61290e600083836124ec565b6001600360008473ffffffffffffffffffffffffffffffffffffffff1673ffffffffffffffffffffffffffffffffffffffff168152602001908152602001600020600082825461295e9190613895565b92505081905550816002600083815260200190815260200160002060006101000a81548173ffffffffffffffffffffffffffffffffffffffff021916908373ffffffffffffffffffffffffffffffffffffffff160217905550808273ffffffffffffffffffffffffffffffffffffffff16600073ffffffffffffffffffffffffffffffffffffffff167fddf252ad1be2c89b69c2b068fc378daa952ba7f163c4a11628f55a4df523b3ef60405160405180910390a4612a1f600083836124f1565b5050565b6000808273ffffffffffffffffffffffffffffffffffffffff163b119050919050565b6040518060c001604052806000815260200160608152602001600073ffffffffffffffffffffffffffffffffffffffff168152602001600073ffffffffffffffffffffffffffffffffffffffff168152602001600081526020016000151581525090565b828054612ab690613a06565b90600052602060002090601f016020900481019282612ad85760008555612b1f565b82601f10612af157805160ff1916838001178555612b1f565b82800160010185558215612b1f579182015b82811115612b1e578251825591602001919060010190612b03565b5b509050612b2c9190612b30565b5090565b5b80821115612b49576000816000905550600101612b31565b5090565b6000612b60612b5b846137a6565b613781565b905082815260208101848484011115612b7c57612b7b613bd3565b5b612b878482856139c4565b509392505050565b6000612ba2612b9d846137d7565b613781565b905082815260208101848484011115612bbe57612bbd613bd3565b5b612bc98482856139c4565b509392505050565b600081359050612be08161404e565b92915050565b600081359050612bf581614065565b92915050565b600081359050612c0a8161407c565b92915050565b600081519050612c1f8161407c565b92915050565b600082601f830112612c3a57612c39613bce565b5b8135612c4a848260208601612b4d565b91505092915050565b600082601f830112612c6857612c67613bce565b5b8135612c78848260208601612b8f565b91505092915050565b600081359050612c9081614093565b92915050565b600060208284031215612cac57612cab613bdd565b5b6000612cba84828501612bd1565b91505092915050565b60008060408385031215612cda57612cd9613bdd565b5b6000612ce885828601612bd1565b9250506020612cf985828601612bd1565b9150509250929050565b600080600060608486031215612d1c57612d1b613bdd565b5b6000612d2a86828701612bd1565b9350506020612d3b86828701612bd1565b9250506040612d4c86828701612c81565b9150509250925092565b60008060008060808587031215612d7057612d6f613bdd565b5b6000612d7e87828801612bd1565b9450506020612d8f87828801612bd1565b9350506040612da087828801612c81565b925050606085013567ffffffffffffffff811115612dc157612dc0613bd8565b5b612dcd87828801612c25565b91505092959194509250565b60008060408385031215612df057612def613bdd565b5b6000612dfe85828601612bd1565b9250506020612e0f85828601612be6565b9150509250929050565b60008060408385031215612e3057612e2f613bdd565b5b6000612e3e85828601612bd1565b9250506020612e4f85828601612c81565b9150509250929050565b600060208284031215612e6f57612e6e613bdd565b5b6000612e7d84828501612bfb565b91505092915050565b600060208284031215612e9c57612e9b613bdd565b5b6000612eaa84828501612c10565b91505092915050565b60008060408385031215612eca57612ec9613bdd565b5b600083013567ffffffffffffffff811115612ee857612ee7613bd8565b5b612ef485828601612c53565b925050602083013567ffffffffffffffff811115612f1557612f14613bd8565b5b612f2185828601612c53565b9150509250929050565b600060208284031215612f4157612f40613bdd565b5b6000612f4f84828501612c81565b91505092915050565b60008060408385031215612f6f57612f6e613bdd565b5b6000612f7d85828601612c81565b9250506020612f8e85828601612c81565b9150509250929050565b6000612fa4838361338c565b905092915050565b612fb581613950565b82525050565b612fc481613950565b82525050565b6000612fd582613818565b612fdf8185613846565b935083602082028501612ff185613808565b8060005b8581101561302d578484038952815161300e8582612f98565b945061301983613839565b925060208a01995050600181019050612ff5565b50829750879550505050505092915050565b61304881613962565b82525050565b61305781613962565b82525050565b600061306882613823565b6130728185613857565b93506130828185602086016139d3565b61308b81613be2565b840191505092915050565b60006130a18261382e565b6130ab8185613868565b93506130bb8185602086016139d3565b6130c481613be2565b840191505092915050565b60006130da8261382e565b6130e48185613879565b93506130f48185602086016139d3565b6130fd81613be2565b840191505092915050565b60006131138261382e565b61311d818561388a565b935061312d8185602086016139d3565b80840191505092915050565b6000613146602283613879565b915061315182613bf3565b604082019050919050565b6000613169601b83613879565b915061317482613c42565b602082019050919050565b600061318c603283613879565b915061319782613c6b565b604082019050919050565b60006131af602583613879565b91506131ba82613cba565b604082019050919050565b60006131d2601c83613879565b91506131dd82613d09565b602082019050919050565b60006131f5603183613879565b915061320082613d32565b604082019050919050565b6000613218601983613879565b915061322382613d81565b602082019050919050565b600061323b602483613879565b915061324682613daa565b604082019050919050565b600061325e601983613879565b915061326982613df9565b602082019050919050565b6000613281602983613879565b915061328c82613e22565b604082019050919050565b60006132a4602e83613879565b91506132af82613e71565b604082019050919050565b60006132c7603e83613879565b91506132d282613ec0565b604082019050919050565b60006132ea602083613879565b91506132f582613f0f565b602082019050919050565b600061330d601883613879565b915061331882613f38565b602082019050919050565b6000613330602183613879565b915061333b82613f61565b604082019050919050565b6000613353602e83613879565b915061335e82613fb0565b604082019050919050565b6000613376602183613879565b915061338182613fff565b604082019050919050565b600060c0830160008301516133a46000860182613415565b50602083015184820360208601526133bc8282613096565b91505060408301516133d16040860182612fac565b5060608301516133e46060860182612fac565b5060808301516133f76080860182613415565b5060a083015161340a60a086018261303f565b508091505092915050565b61341e816139ba565b82525050565b61342d816139ba565b82525050565b600061343f8285613108565b915061344b8284613108565b91508190509392505050565b600060208201905061346c6000830184612fbb565b92915050565b60006080820190506134876000830187612fbb565b6134946020830186612fbb565b6134a16040830185613424565b81810360608301526134b3818461305d565b905095945050505050565b60006040820190506134d36000830185612fbb565b6134e06020830184613424565b9392505050565b600060208201905081810360008301526135018184612fca565b905092915050565b600060208201905061351e600083018461304e565b92915050565b6000602082019050818103600083015261353e81846130cf565b905092915050565b6000602082019050818103600083015261355f81613139565b9050919050565b6000602082019050818103600083015261357f8161315c565b9050919050565b6000602082019050818103600083015261359f8161317f565b9050919050565b600060208201905081810360008301526135bf816131a2565b9050919050565b600060208201905081810360008301526135df816131c5565b9050919050565b600060208201905081810360008301526135ff816131e8565b9050919050565b6000602082019050818103600083015261361f8161320b565b9050919050565b6000602082019050818103600083015261363f8161322e565b9050919050565b6000602082019050818103600083015261365f81613251565b9050919050565b6000602082019050818103600083015261367f81613274565b9050919050565b6000602082019050818103600083015261369f81613297565b9050919050565b600060208201905081810360008301526136bf816132ba565b9050919050565b600060208201905081810360008301526136df816132dd565b9050919050565b600060208201905081810360008301526136ff81613300565b9050919050565b6000602082019050818103600083015261371f81613323565b9050919050565b6000602082019050818103600083015261373f81613346565b9050919050565b6000602082019050818103600083015261375f81613369565b9050919050565b600060208201905061377b6000830184613424565b92915050565b600061378b61379c565b90506137978282613a38565b919050565b6000604051905090565b600067ffffffffffffffff8211156137c1576137c0613b9f565b5b6137ca82613be2565b9050602081019050919050565b600067ffffffffffffffff8211156137f2576137f1613b9f565b5b6137fb82613be2565b9050602081019050919050565b6000819050602082019050919050565b600081519050919050565b600081519050919050565b600081519050919050565b6000602082019050919050565b600082825260208201905092915050565b600082825260208201905092915050565b600082825260208201905092915050565b600082825260208201905092915050565b600081905092915050565b60006138a0826139ba565b91506138ab836139ba565b9250827fffffffffffffffffffffffffffffffffffffffffffffffffffffffffffffffff038211156138e0576138df613ae3565b5b828201905092915050565b60006138f6826139ba565b9150613901836139ba565b92508261391157613910613b12565b5b828204905092915050565b6000613927826139ba565b9150613932836139ba565b92508282101561394557613944613ae3565b5b828203905092915050565b600061395b8261399a565b9050919050565b60008115159050919050565b60007fffffffff0000000000000000000000000000000000000000000000000000000082169050919050565b600073ffffffffffffffffffffffffffffffffffffffff82169050919050565b6000819050919050565b82818337600083830152505050565b60005b838110156139f15780820151818401526020810190506139d6565b83811115613a00576000848401525b50505050565b60006002820490506001821680613a1e57607f821691505b60208210811415613a3257613a31613b41565b5b50919050565b613a4182613be2565b810181811067ffffffffffffffff82111715613a6057613a5f613b9f565b5b80604052505050565b6000613a74826139ba565b91507fffffffffffffffffffffffffffffffffffffffffffffffffffffffffffffffff821415613aa757613aa6613ae3565b5b600182019050919050565b6000613abd826139ba565b9150613ac8836139ba565b925082613ad857613ad7613b12565b5b828206905092915050565b7f4e487b7100000000000000000000000000000000000000000000000000000000600052601160045260246000fd5b7f4e487b7100000000000000000000000000000000000000000000000000000000600052601260045260246000fd5b7f4e487b7100000000000000000000000000000000000000000000000000000000600052602260045260246000fd5b7f4e487b7100000000000000000000000000000000000000000000000000000000600052603260045260246000fd5b7f4e487b7100000000000000000000000000000000000000000000000000000000600052604160045260246000fd5b600080fd5b600080fd5b600080fd5b600080fd5b6000601f19601f8301169050919050565b7f4e6f7420656e6f75676820657468657220746f206c6973742074686520746f6b60008201527f656e000000000000000000000000000000000000000000000000000000000000602082015250565b7f436f756e7465723a2064656372656d656e74206f766572666c6f770000000000600082015250565b7f4552433732313a207472616e7366657220746f206e6f6e20455243373231526560008201527f63656976657220696d706c656d656e7465720000000000000000000000000000602082015250565b7f4552433732313a207472616e736665722066726f6d20696e636f72726563742060008201527f6f776e6572000000000000000000000000000000000000000000000000000000602082015250565b7f4552433732313a20746f6b656e20616c7265616479206d696e74656400000000600082015250565b7f4f6e6c792074686520636f6e7472616374206465706c6f7965722063616e206360008201527f616c6c20746869732066756e6374696f6e000000000000000000000000000000602082015250565b7f43616e27742062757920616e20756e6c6973746564204e467400000000000000600082015250565b7f4552433732313a207472616e7366657220746f20746865207a65726f2061646460008201527f7265737300000000000000000000000000000000000000000000000000000000602082015250565b7f4552433732313a20617070726f766520746f2063616c6c657200000000000000600082015250565b7f4552433732313a2061646472657373207a65726f206973206e6f74206120766160008201527f6c6964206f776e65720000000000000000000000000000000000000000000000602082015250565b7f45524337323155524953746f726167653a2055524920736574206f66206e6f6e60008201527f6578697374656e7420746f6b656e000000000000000000000000000000000000602082015250565b7f4552433732313a20617070726f76652063616c6c6572206973206e6f7420746f60008201527f6b656e206f776e6572206e6f7220617070726f76656420666f7220616c6c0000602082015250565b7f4552433732313a206d696e7420746f20746865207a65726f2061646472657373600082015250565b7f4552433732313a20696e76616c696420746f6b656e2049440000000000000000600082015250565b7f4552433732313a20617070726f76616c20746f2063757272656e74206f776e6560008201527f7200000000000000000000000000000000000000000000000000000000000000602082015250565b7f4552433732313a2063616c6c6572206973206e6f7420746f6b656e206f776e6560008201527f72206e6f7220617070726f766564000000000000000000000000000000000000602082015250565b7f4e6f7420656e6f75676820657468657220746f206275792074686520746f6b6560008201527f6e00000000000000000000000000000000000000000000000000000000000000602082015250565b61405781613950565b811461406257600080fd5b50565b61406e81613962565b811461407957600080fd5b50565b6140858161396e565b811461409057600080fd5b50565b61409c816139ba565b81146140a757600080fd5b5056fea26469706673582212201d5e55fc8c487b95287f9eec5b1aed48cd61e397e2bf9544c2bed975edad2f6164736f6c63430008050033",
  "linkReferences": {},
  "deployedLinkReferences": {}
}