{
  "_format": "hh-sol-artifact-1",
  "contractName": "MarketPlace",
  "sourceName": "contracts/MarketPlace.sol",
  "abi": [
    {
      "inputs": [],
      "stateMutability": "nonpayable",
      "type": "constructor"
    },
    {
      "anonymous": false,
      "inputs": [
        {
          "indexed": true,
          "internalType": "address",
          "name": "owner",
          "type": "address"
        },
        {
          "indexed": true,
          "internalType": "address",
          "name": "approved",
          "type": "address"
        },
        {
          "indexed": true,
          "internalType": "uint256",
          "name": "tokenId",
          "type": "uint256"
        }
      ],
      "name": "Approval",
      "type": "event"
    },
    {
      "anonymous": false,
      "inputs": [
        {
          "indexed": true,
          "internalType": "address",
          "name": "owner",
          "type": "address"
        },
        {
          "indexed": true,
          "internalType": "address",
          "name": "operator",
          "type": "address"
        },
        {
          "indexed": false,
          "internalType": "bool",
          "name": "approved",
          "type": "bool"
        }
      ],
      "name": "ApprovalForAll",
      "type": "event"
    },
    {
      "anonymous": false,
      "inputs": [
        {
          "indexed": true,
          "internalType": "uint256",
          "name": "tokenId",
          "type": "uint256"
        },
        {
          "indexed": false,
          "internalType": "address",
          "name": "listedBy",
          "type": "address"
        },
        {
          "indexed": false,
          "internalType": "uint256",
          "name": "price",
          "type": "uint256"
        }
      ],
      "name": "TokenListingSuccess",
      "type": "event"
    },
    {
      "anonymous": false,
      "inputs": [
        {
          "indexed": true,
          "internalType": "address",
          "name": "from",
          "type": "address"
        },
        {
          "indexed": true,
          "internalType": "address",
          "name": "to",
          "type": "address"
        },
        {
          "indexed": true,
          "internalType": "uint256",
          "name": "tokenId",
          "type": "uint256"
        }
      ],
      "name": "Transfer",
      "type": "event"
    },
    {
      "inputs": [
        {
          "internalType": "address",
          "name": "to",
          "type": "address"
        },
        {
          "internalType": "uint256",
          "name": "tokenId",
          "type": "uint256"
        }
      ],
      "name": "approve",
      "outputs": [],
      "stateMutability": "nonpayable",
      "type": "function"
    },
    {
      "inputs": [
        {
          "internalType": "address",
          "name": "owner",
          "type": "address"
        }
      ],
      "name": "balanceOf",
      "outputs": [
        {
          "internalType": "uint256",
          "name": "",
          "type": "uint256"
        }
      ],
      "stateMutability": "view",
      "type": "function"
    },
    {
      "inputs": [
        {
          "internalType": "uint256",
          "name": "tokenId",
          "type": "uint256"
        }
      ],
      "name": "buyToken",
      "outputs": [],
      "stateMutability": "payable",
      "type": "function"
    },
    {
      "inputs": [],
      "name": "countOFTokens",
      "outputs": [
        {
          "internalType": "uint256",
          "name": "",
          "type": "uint256"
        }
      ],
      "stateMutability": "view",
      "type": "function"
    },
    {
      "inputs": [],
      "name": "countOfListedTokens",
      "outputs": [
        {
          "internalType": "uint256",
          "name": "",
          "type": "uint256"
        }
      ],
      "stateMutability": "view",
      "type": "function"
    },
    {
      "inputs": [
        {
          "internalType": "string",
          "name": "tokenURI",
          "type": "string"
        },
        {
          "internalType": "string",
          "name": "name",
          "type": "string"
        }
      ],
      "name": "createToken",
      "outputs": [
        {
          "internalType": "uint256",
          "name": "",
          "type": "uint256"
        }
      ],
      "stateMutability": "nonpayable",
      "type": "function"
    },
    {
      "inputs": [],
      "name": "getAllTokens",
      "outputs": [
        {
          "components": [
            {
              "internalType": "uint256",
              "name": "tokenId",
              "type": "uint256"
            },
            {
              "internalType": "string",
              "name": "name",
              "type": "string"
            },
            {
              "internalType": "address",
              "name": "currOwner",
              "type": "address"
            },
            {
              "internalType": "address",
              "name": "prevOwner",
              "type": "address"
            },
            {
              "internalType": "uint256",
              "name": "price",
              "type": "uint256"
            },
            {
              "internalType": "bool",
              "name": "currentlyListed",
              "type": "bool"
            }
          ],
          "internalType": "struct MarketPlace.NFT[]",
          "name": "",
          "type": "tuple[]"
        }
      ],
      "stateMutability": "view",
      "type": "function"
    },
    {
      "inputs": [
        {
          "internalType": "uint256",
          "name": "tokenId",
          "type": "uint256"
        }
      ],
      "name": "getApproved",
      "outputs": [
        {
          "internalType": "address",
          "name": "",
          "type": "address"
        }
      ],
      "stateMutability": "view",
      "type": "function"
    },
    {
      "inputs": [],
      "name": "getListedTokens",
      "outputs": [
        {
          "components": [
            {
              "internalType": "uint256",
              "name": "tokenId",
              "type": "uint256"
            },
            {
              "internalType": "string",
              "name": "name",
              "type": "string"
            },
            {
              "internalType": "address",
              "name": "currOwner",
              "type": "address"
            },
            {
              "internalType": "address",
              "name": "prevOwner",
              "type": "address"
            },
            {
              "internalType": "uint256",
              "name": "price",
              "type": "uint256"
            },
            {
              "internalType": "bool",
              "name": "currentlyListed",
              "type": "bool"
            }
          ],
          "internalType": "struct MarketPlace.NFT[]",
          "name": "",
          "type": "tuple[]"
        }
      ],
      "stateMutability": "view",
      "type": "function"
    },
    {
      "inputs": [],
      "name": "getListingPrice",
      "outputs": [
        {
          "internalType": "uint256",
          "name": "",
          "type": "uint256"
        }
      ],
      "stateMutability": "view",
      "type": "function"
    },
    {
      "inputs": [
        {
          "internalType": "address",
          "name": "user",
          "type": "address"
        }
      ],
      "name": "getMyTokens",
      "outputs": [
        {
          "components": [
            {
              "internalType": "uint256",
              "name": "tokenId",
              "type": "uint256"
            },
            {
              "internalType": "string",
              "name": "name",
              "type": "string"
            },
            {
              "internalType": "address",
              "name": "currOwner",
              "type": "address"
            },
            {
              "internalType": "address",
              "name": "prevOwner",
              "type": "address"
            },
            {
              "internalType": "uint256",
              "name": "price",
              "type": "uint256"
            },
            {
              "internalType": "bool",
              "name": "currentlyListed",
              "type": "bool"
            }
          ],
          "internalType": "struct MarketPlace.NFT[]",
          "name": "",
          "type": "tuple[]"
        }
      ],
      "stateMutability": "view",
      "type": "function"
    },
    {
      "inputs": [
        {
          "internalType": "address",
          "name": "owner",
          "type": "address"
        },
        {
          "internalType": "address",
          "name": "operator",
          "type": "address"
        }
      ],
      "name": "isApprovedForAll",
      "outputs": [
        {
          "internalType": "bool",
          "name": "",
          "type": "bool"
        }
      ],
      "stateMutability": "view",
      "type": "function"
    },
    {
      "inputs": [
        {
          "internalType": "uint256",
          "name": "tokenId",
          "type": "uint256"
        },
        {
          "internalType": "uint256",
          "name": "price",
          "type": "uint256"
        }
      ],
      "name": "listToken",
      "outputs": [],
      "stateMutability": "payable",
      "type": "function"
    },
    {
      "inputs": [],
      "name": "name",
      "outputs": [
        {
          "internalType": "string",
          "name": "",
          "type": "string"
        }
      ],
      "stateMutability": "view",
      "type": "function"
    },
    {
      "inputs": [
        {
          "internalType": "uint256",
          "name": "tokenId",
          "type": "uint256"
        }
      ],
      "name": "ownerOf",
      "outputs": [
        {
          "internalType": "address",
          "name": "",
          "type": "address"
        }
      ],
      "stateMutability": "view",
      "type": "function"
    },
    {
      "inputs": [
        {
          "internalType": "address",
          "name": "from",
          "type": "address"
        },
        {
          "internalType": "address",
          "name": "to",
          "type": "address"
        },
        {
          "internalType": "uint256",
          "name": "tokenId",
          "type": "uint256"
        }
      ],
      "name": "safeTransferFrom",
      "outputs": [],
      "stateMutability": "nonpayable",
      "type": "function"
    },
    {
      "inputs": [
        {
          "internalType": "address",
          "name": "from",
          "type": "address"
        },
        {
          "internalType": "address",
          "name": "to",
          "type": "address"
        },
        {
          "internalType": "uint256",
          "name": "tokenId",
          "type": "uint256"
        },
        {
          "internalType": "bytes",
          "name": "data",
          "type": "bytes"
        }
      ],
      "name": "safeTransferFrom",
      "outputs": [],
      "stateMutability": "nonpayable",
      "type": "function"
    },
    {
      "inputs": [
        {
          "internalType": "address",
          "name": "operator",
          "type": "address"
        },
        {
          "internalType": "bool",
          "name": "approved",
          "type": "bool"
        }
      ],
      "name": "setApprovalForAll",
      "outputs": [],
      "stateMutability": "nonpayable",
      "type": "function"
    },
    {
      "inputs": [
        {
          "internalType": "bytes4",
          "name": "interfaceId",
          "type": "bytes4"
        }
      ],
      "name": "supportsInterface",
      "outputs": [
        {
          "internalType": "bool",
          "name": "",
          "type": "bool"
        }
      ],
      "stateMutability": "view",
      "type": "function"
    },
    {
      "inputs": [],
      "name": "symbol",
      "outputs": [
        {
          "internalType": "string",
          "name": "",
          "type": "string"
        }
      ],
      "stateMutability": "view",
      "type": "function"
    },
    {
      "inputs": [
        {
          "internalType": "uint256",
          "name": "tokenId",
          "type": "uint256"
        }
      ],
      "name": "tokenURI",
      "outputs": [
        {
          "internalType": "string",
          "name": "",
          "type": "string"
        }
      ],
      "stateMutability": "view",
      "type": "function"
    },
    {
      "inputs": [
        {
          "internalType": "address",
          "name": "from",
          "type": "address"
        },
        {
          "internalType": "address",
          "name": "to",
          "type": "address"
        },
        {
          "internalType": "uint256",
          "name": "tokenId",
          "type": "uint256"
        }
      ],
      "name": "transferFrom",
      "outputs": [],
      "stateMutability": "nonpayable",
      "type": "function"
    },
    {
      "inputs": [
        {
          "internalType": "uint256",
          "name": "newPrice",
          "type": "uint256"
        }
      ],
      "name": "updateListPrice",
      "outputs": [],
      "stateMutability": "nonpayable",
      "type": "function"
    },
    {
      "inputs": [
        {
          "internalType": "uint256",
          "name": "tokenId",
          "type": "uint256"
        },
        {
          "internalType": "uint256",
          "name": "newPrice",
          "type": "uint256"
        }
      ],
      "name": "updateTokenPrice",
      "outputs": [],
      "stateMutability": "nonpayable",
      "type": "function"
    }
  ],
  "bytecode": "0x60806040523480156200001157600080fd5b506040518060400160405280600981526020017f736b614d61726b657400000000000000000000000000000000000000000000008152506040518060400160405280600381526020017f534b41000000000000000000000000000000000000000000000000000000000081525081600090805190602001906200009692919062000105565b508060019080519060200190620000af92919062000105565b50505033600760006101000a81548173ffffffffffffffffffffffffffffffffffffffff021916908373ffffffffffffffffffffffffffffffffffffffff1602179055506402540be400600a819055506200021a565b8280546200011390620001b5565b90600052602060002090601f01602090048101928262000137576000855562000183565b82601f106200015257805160ff191683800117855562000183565b8280016001018555821562000183579182015b828111156200018257825182559160200191906001019062000165565b5b50905062000192919062000196565b5090565b5b80821115620001b157600081600090555060010162000197565b5090565b60006002820490506001821680620001ce57607f821691505b60208210811415620001e557620001e4620001eb565b5b50919050565b7f4e487b7100000000000000000000000000000000000000000000000000000000600052602260045260246000fd5b61405b806200022a6000396000f3fe60806040526004361061014b5760003560e01c80636352211e116100b6578063a22cb4651161006f578063a22cb4651461049c578063b88d4fde146104c5578063bc5557c6146104ee578063c322579c14610519578063c87b56dd14610542578063e985e9c51461057f5761014b565b80636352211e1461038757806370a08231146103c457806375c1631d14610401578063897925f51461041d5780638a2221ad1461044657806395d89b41146104715761014b565b806323b872dd1161010857806323b872dd146102865780632a5c792a146102af5780632ba996a5146102da5780632d296bf1146103055780632f2f2d561461032157806342842e0e1461035e5761014b565b806301ffc9a71461015057806306fdde031461018d578063081812fc146101b8578063095ea7b3146101f557806312e855851461021e5780631751659214610249575b600080fd5b34801561015c57600080fd5b5061017760048036038101906101729190612dd4565b6105bc565b6040516101849190613484565b60405180910390f35b34801561019957600080fd5b506101a261069e565b6040516101af919061349f565b60405180910390f35b3480156101c457600080fd5b506101df60048036038101906101da9190612ea6565b610730565b6040516101ec91906133d2565b60405180910390f35b34801561020157600080fd5b5061021c60048036038101906102179190612d94565b610776565b005b34801561022a57600080fd5b5061023361088e565b60405161024091906136e1565b60405180910390f35b34801561025557600080fd5b50610270600480360381019061026b9190612c11565b610898565b60405161027d9190613462565b60405180910390f35b34801561029257600080fd5b506102ad60048036038101906102a89190612c7e565b610be7565b005b3480156102bb57600080fd5b506102c4610c47565b6040516102d19190613462565b60405180910390f35b3480156102e657600080fd5b506102ef610e97565b6040516102fc9190613462565b60405180910390f35b61031f600480360381019061031a9190612ea6565b611121565b005b34801561032d57600080fd5b5061034860048036038101906103439190612e2e565b611364565b60405161035591906136e1565b60405180910390f35b34801561036a57600080fd5b5061038560048036038101906103809190612c7e565b6114ef565b005b34801561039357600080fd5b506103ae60048036038101906103a99190612ea6565b61150f565b6040516103bb91906133d2565b60405180910390f35b3480156103d057600080fd5b506103eb60048036038101906103e69190612c11565b6115c1565b6040516103f891906136e1565b60405180910390f35b61041b60048036038101906104169190612ed3565b611679565b005b34801561042957600080fd5b50610444600480360381019061043f9190612ed3565b61182f565b005b34801561045257600080fd5b5061045b6118c2565b60405161046891906136e1565b60405180910390f35b34801561047d57600080fd5b506104866118d3565b604051610493919061349f565b60405180910390f35b3480156104a857600080fd5b506104c360048036038101906104be9190612d54565b611965565b005b3480156104d157600080fd5b506104ec60048036038101906104e79190612cd1565b61197b565b005b3480156104fa57600080fd5b506105036119dd565b60405161051091906136e1565b60405180910390f35b34801561052557600080fd5b50610540600480360381019061053b9190612ea6565b6119ee565b005b34801561054e57600080fd5b5061056960048036038101906105649190612ea6565b611a88565b604051610576919061349f565b60405180910390f35b34801561058b57600080fd5b506105a660048036038101906105a19190612c3e565b611b9b565b6040516105b39190613484565b60405180910390f35b60007f80ac58cd000000000000000000000000000000000000000000000000000000007bffffffffffffffffffffffffffffffffffffffffffffffffffffffff1916827bffffffffffffffffffffffffffffffffffffffffffffffffffffffff1916148061068757507f5b5e139f000000000000000000000000000000000000000000000000000000007bffffffffffffffffffffffffffffffffffffffffffffffffffffffff1916827bffffffffffffffffffffffffffffffffffffffffffffffffffffffff1916145b80610697575061069682611c2f565b5b9050919050565b6060600080546106ad90613981565b80601f01602080910402602001604051908101604052809291908181526020018280546106d990613981565b80156107265780601f106106fb57610100808354040283529160200191610726565b820191906000526020600020905b81548152906001019060200180831161070957829003601f168201915b5050505050905090565b600061073b82611c99565b6004600083815260200190815260200160002060009054906101000a900473ffffffffffffffffffffffffffffffffffffffff169050919050565b60006107818261150f565b90508073ffffffffffffffffffffffffffffffffffffffff168373ffffffffffffffffffffffffffffffffffffffff1614156107f2576040517f08c379a00000000000000000000000000000000000000000000000000000000081526004016107e990613681565b60405180910390fd5b8073ffffffffffffffffffffffffffffffffffffffff16610811611ce4565b73ffffffffffffffffffffffffffffffffffffffff161480610840575061083f8161083a611ce4565b611b9b565b5b61087f576040517f08c379a000000000000000000000000000000000000000000000000000000000815260040161087690613621565b60405180910390fd5b6108898383611cec565b505050565b6000600a54905090565b606060006108a66008611da5565b90506000805b82811015610940578473ffffffffffffffffffffffffffffffffffffffff16600b600083815260200190815260200160002060020160009054906101000a900473ffffffffffffffffffffffffffffffffffffffff1673ffffffffffffffffffffffffffffffffffffffff16141561092d578180610929906139e4565b9250505b8080610938906139e4565b9150506108ac565b5060008167ffffffffffffffff81111561095d5761095c613b1a565b5b60405190808252806020026020018201604052801561099657816020015b6109836129c1565b81526020019060019003908161097b5790505b5090506000805b84811015610bda578673ffffffffffffffffffffffffffffffffffffffff16600b600083815260200190815260200160002060020160009054906101000a900473ffffffffffffffffffffffffffffffffffffffff1673ffffffffffffffffffffffffffffffffffffffff161415610bc757600b60008281526020019081526020016000206040518060c001604052908160008201548152602001600182018054610a4790613981565b80601f0160208091040260200160405190810160405280929190818152602001828054610a7390613981565b8015610ac05780601f10610a9557610100808354040283529160200191610ac0565b820191906000526020600020905b815481529060010190602001808311610aa357829003601f168201915b505050505081526020016002820160009054906101000a900473ffffffffffffffffffffffffffffffffffffffff1673ffffffffffffffffffffffffffffffffffffffff1673ffffffffffffffffffffffffffffffffffffffff1681526020016003820160009054906101000a900473ffffffffffffffffffffffffffffffffffffffff1673ffffffffffffffffffffffffffffffffffffffff1673ffffffffffffffffffffffffffffffffffffffff168152602001600482015481526020016005820160009054906101000a900460ff161515151581525050838381518110610bad57610bac613aeb565b5b60200260200101819052508180610bc3906139e4565b9250505b8080610bd2906139e4565b91505061099d565b5081945050505050919050565b610bf8610bf2611ce4565b82611db3565b610c37576040517f08c379a0000000000000000000000000000000000000000000000000000000008152600401610c2e906136a1565b60405180910390fd5b610c42838383611e48565b505050565b60606000610c556008611da5565b905060008167ffffffffffffffff811115610c7357610c72613b1a565b5b604051908082528060200260200182016040528015610cac57816020015b610c996129c1565b815260200190600190039081610c915790505b50905060005b82811015610e8e576000600182610cc99190613810565b90506000600b60008381526020019081526020016000209050806040518060c001604052908160008201548152602001600182018054610d0890613981565b80601f0160208091040260200160405190810160405280929190818152602001828054610d3490613981565b8015610d815780601f10610d5657610100808354040283529160200191610d81565b820191906000526020600020905b815481529060010190602001808311610d6457829003601f168201915b505050505081526020016002820160009054906101000a900473ffffffffffffffffffffffffffffffffffffffff1673ffffffffffffffffffffffffffffffffffffffff1673ffffffffffffffffffffffffffffffffffffffff1681526020016003820160009054906101000a900473ffffffffffffffffffffffffffffffffffffffff1673ffffffffffffffffffffffffffffffffffffffff1673ffffffffffffffffffffffffffffffffffffffff168152602001600482015481526020016005820160009054906101000a900460ff161515151581525050848481518110610e6e57610e6d613aeb565b5b602002602001018190525050508080610e86906139e4565b915050610cb2565b50809250505090565b60606000610ea56008611da5565b90506000610eb36009611da5565b905060008167ffffffffffffffff811115610ed157610ed0613b1a565b5b604051908082528060200260200182016040528015610f0a57816020015b610ef76129c1565b815260200190600190039081610eef5790505b509050600080600190505b84811161111657600b600082815260200190815260200160002060050160009054906101000a900460ff1615611103576000600b60008381526020019081526020016000209050806040518060c001604052908160008201548152602001600182018054610f8290613981565b80601f0160208091040260200160405190810160405280929190818152602001828054610fae90613981565b8015610ffb5780601f10610fd057610100808354040283529160200191610ffb565b820191906000526020600020905b815481529060010190602001808311610fde57829003601f168201915b505050505081526020016002820160009054906101000a900473ffffffffffffffffffffffffffffffffffffffff1673ffffffffffffffffffffffffffffffffffffffff1673ffffffffffffffffffffffffffffffffffffffff1681526020016003820160009054906101000a900473ffffffffffffffffffffffffffffffffffffffff1673ffffffffffffffffffffffffffffffffffffffff1673ffffffffffffffffffffffffffffffffffffffff168152602001600482015481526020016005820160009054906101000a900460ff1615151515815250508484815181106110e8576110e7613aeb565b5b602002602001018190525082806110fe906139e4565b935050505b808061110e906139e4565b915050610f15565b508194505050505090565b6000600b600083815260200190815260200160002060040154905060011515600b600084815260200190815260200160002060050160009054906101000a900460ff161515146111a6576040517f08c379a000000000000000000000000000000000000000000000000000000000815260040161119d90613581565b60405180910390fd5b803410156111e9576040517f08c379a00000000000000000000000000000000000000000000000000000000081526004016111e0906136c1565b60405180910390fd5b6000600b600084815260200190815260200160002060020160009054906101000a900473ffffffffffffffffffffffffffffffffffffffff1690506000339050611234828286611e48565b6000600b600086815260200190815260200160002060050160006101000a81548160ff02191690831515021790555080600b600086815260200190815260200160002060020160006101000a81548173ffffffffffffffffffffffffffffffffffffffff021916908373ffffffffffffffffffffffffffffffffffffffff16021790555081600b600086815260200190815260200160002060030160006101000a81548173ffffffffffffffffffffffffffffffffffffffff021916908373ffffffffffffffffffffffffffffffffffffffff16021790555061131760096120af565b8173ffffffffffffffffffffffffffffffffffffffff166108fc849081150290604051600060405180830381858888f1935050505015801561135d573d6000803e3d6000fd5b5050505050565b6000611370600861210b565b600061137c6008611da5565b90506113883382612121565b611392818561213f565b6040518060c001604052808281526020018481526020013373ffffffffffffffffffffffffffffffffffffffff168152602001600073ffffffffffffffffffffffffffffffffffffffff1681526020016000815260200160001515815250600b6000838152602001908152602001600020600082015181600001556020820151816001019080519060200190611429929190612a25565b5060408201518160020160006101000a81548173ffffffffffffffffffffffffffffffffffffffff021916908373ffffffffffffffffffffffffffffffffffffffff16021790555060608201518160030160006101000a81548173ffffffffffffffffffffffffffffffffffffffff021916908373ffffffffffffffffffffffffffffffffffffffff1602179055506080820151816004015560a08201518160050160006101000a81548160ff0219169083151502179055509050508091505092915050565b61150a8383836040518060200160405280600081525061197b565b505050565b6000806002600084815260200190815260200160002060009054906101000a900473ffffffffffffffffffffffffffffffffffffffff169050600073ffffffffffffffffffffffffffffffffffffffff168173ffffffffffffffffffffffffffffffffffffffff1614156115b8576040517f08c379a00000000000000000000000000000000000000000000000000000000081526004016115af90613661565b60405180910390fd5b80915050919050565b60008073ffffffffffffffffffffffffffffffffffffffff168273ffffffffffffffffffffffffffffffffffffffff161415611632576040517f08c379a0000000000000000000000000000000000000000000000000000000008152600401611629906135e1565b60405180910390fd5b600360008373ffffffffffffffffffffffffffffffffffffffff1673ffffffffffffffffffffffffffffffffffffffff168152602001908152602001600020549050919050565b600a543410156116be576040517f08c379a00000000000000000000000000000000000000000000000000000000081526004016116b5906134c1565b60405180910390fd5b6000600b600084815260200190815260200160002060020160009054906101000a900473ffffffffffffffffffffffffffffffffffffffff1690508073ffffffffffffffffffffffffffffffffffffffff163373ffffffffffffffffffffffffffffffffffffffff161461173157600080fd5b6001600b600085815260200190815260200160002060050160006101000a81548160ff02191690831515021790555081600b600085815260200190815260200160002060040181905550611785600961210b565b600760009054906101000a900473ffffffffffffffffffffffffffffffffffffffff1673ffffffffffffffffffffffffffffffffffffffff166108fc600a549081150290604051600060405180830381858888f193505050501580156117ef573d6000803e3d6000fd5b50827f77c1432afc94806c26ae3f6e9f65698728ea5f2b7d60d317ea07651d9178f0dc3384604051611822929190613439565b60405180910390a2505050565b6000600b600084815260200190815260200160002060020160009054906101000a900473ffffffffffffffffffffffffffffffffffffffff1690503373ffffffffffffffffffffffffffffffffffffffff168173ffffffffffffffffffffffffffffffffffffffff16146118a257600080fd5b81600b600085815260200190815260200160002060040181905550505050565b60006118ce6009611da5565b905090565b6060600180546118e290613981565b80601f016020809104026020016040519081016040528092919081815260200182805461190e90613981565b801561195b5780601f106119305761010080835404028352916020019161195b565b820191906000526020600020905b81548152906001019060200180831161193e57829003601f168201915b5050505050905090565b611977611970611ce4565b83836121b3565b5050565b61198c611986611ce4565b83611db3565b6119cb576040517f08c379a00000000000000000000000000000000000000000000000000000000081526004016119c2906136a1565b60405180910390fd5b6119d784848484612320565b50505050565b60006119e96008611da5565b905090565b600760009054906101000a900473ffffffffffffffffffffffffffffffffffffffff1673ffffffffffffffffffffffffffffffffffffffff163373ffffffffffffffffffffffffffffffffffffffff1614611a7e576040517f08c379a0000000000000000000000000000000000000000000000000000000008152600401611a7590613561565b60405180910390fd5b80600a8190555050565b6060611a9382611c99565b6000600660008481526020019081526020016000208054611ab390613981565b80601f0160208091040260200160405190810160405280929190818152602001828054611adf90613981565b8015611b2c5780601f10611b0157610100808354040283529160200191611b2c565b820191906000526020600020905b815481529060010190602001808311611b0f57829003601f168201915b505050505090506000611b3d61237c565b9050600081511415611b53578192505050611b96565b600082511115611b88578082604051602001611b709291906133ae565b60405160208183030381529060405292505050611b96565b611b9184612393565b925050505b919050565b6000600560008473ffffffffffffffffffffffffffffffffffffffff1673ffffffffffffffffffffffffffffffffffffffff16815260200190815260200160002060008373ffffffffffffffffffffffffffffffffffffffff1673ffffffffffffffffffffffffffffffffffffffff16815260200190815260200160002060009054906101000a900460ff16905092915050565b60007f01ffc9a7000000000000000000000000000000000000000000000000000000007bffffffffffffffffffffffffffffffffffffffffffffffffffffffff1916827bffffffffffffffffffffffffffffffffffffffffffffffffffffffff1916149050919050565b611ca2816123fb565b611ce1576040517f08c379a0000000000000000000000000000000000000000000000000000000008152600401611cd890613661565b60405180910390fd5b50565b600033905090565b816004600083815260200190815260200160002060006101000a81548173ffffffffffffffffffffffffffffffffffffffff021916908373ffffffffffffffffffffffffffffffffffffffff160217905550808273ffffffffffffffffffffffffffffffffffffffff16611d5f8361150f565b73ffffffffffffffffffffffffffffffffffffffff167f8c5be1e5ebec7d5bd14f71427d1e84f3dd0314c0f7b2291e5b200ac8c7c3b92560405160405180910390a45050565b600081600001549050919050565b600080611dbf8361150f565b90508073ffffffffffffffffffffffffffffffffffffffff168473ffffffffffffffffffffffffffffffffffffffff161480611e015750611e008185611b9b565b5b80611e3f57508373ffffffffffffffffffffffffffffffffffffffff16611e2784610730565b73ffffffffffffffffffffffffffffffffffffffff16145b91505092915050565b8273ffffffffffffffffffffffffffffffffffffffff16611e688261150f565b73ffffffffffffffffffffffffffffffffffffffff1614611ebe576040517f08c379a0000000000000000000000000000000000000000000000000000000008152600401611eb590613521565b60405180910390fd5b600073ffffffffffffffffffffffffffffffffffffffff168273ffffffffffffffffffffffffffffffffffffffff161415611f2e576040517f08c379a0000000000000000000000000000000000000000000000000000000008152600401611f25906135a1565b60405180910390fd5b611f39838383612467565b611f44600082611cec565b6001600360008573ffffffffffffffffffffffffffffffffffffffff1673ffffffffffffffffffffffffffffffffffffffff1681526020019081526020016000206000828254611f949190613897565b925050819055506001600360008473ffffffffffffffffffffffffffffffffffffffff1673ffffffffffffffffffffffffffffffffffffffff1681526020019081526020016000206000828254611feb9190613810565b92505081905550816002600083815260200190815260200160002060006101000a81548173ffffffffffffffffffffffffffffffffffffffff021916908373ffffffffffffffffffffffffffffffffffffffff160217905550808273ffffffffffffffffffffffffffffffffffffffff168473ffffffffffffffffffffffffffffffffffffffff167fddf252ad1be2c89b69c2b068fc378daa952ba7f163c4a11628f55a4df523b3ef60405160405180910390a46120aa83838361246c565b505050565b600081600001549050600081116120fb576040517f08c379a00000000000000000000000000000000000000000000000000000000081526004016120f2906134e1565b60405180910390fd5b6001810382600001819055505050565b6001816000016000828254019250508190555050565b61213b828260405180602001604052806000815250612471565b5050565b612148826123fb565b612187576040517f08c379a000000000000000000000000000000000000000000000000000000000815260040161217e90613601565b60405180910390fd5b806006600084815260200190815260200160002090805190602001906121ae929190612a25565b505050565b8173ffffffffffffffffffffffffffffffffffffffff168373ffffffffffffffffffffffffffffffffffffffff161415612222576040517f08c379a0000000000000000000000000000000000000000000000000000000008152600401612219906135c1565b60405180910390fd5b80600560008573ffffffffffffffffffffffffffffffffffffffff1673ffffffffffffffffffffffffffffffffffffffff16815260200190815260200160002060008473ffffffffffffffffffffffffffffffffffffffff1673ffffffffffffffffffffffffffffffffffffffff16815260200190815260200160002060006101000a81548160ff0219169083151502179055508173ffffffffffffffffffffffffffffffffffffffff168373ffffffffffffffffffffffffffffffffffffffff167f17307eab39ab6107e8899845ad3d59bd9653f200f220920489ca2b5937696c31836040516123139190613484565b60405180910390a3505050565b61232b848484611e48565b612337848484846124cc565b612376576040517f08c379a000000000000000000000000000000000000000000000000000000000815260040161236d90613501565b60405180910390fd5b50505050565b606060405180602001604052806000815250905090565b606061239e82611c99565b60006123a861237c565b905060008151116123c857604051806020016040528060008152506123f3565b806123d284612663565b6040516020016123e39291906133ae565b6040516020818303038152906040525b915050919050565b60008073ffffffffffffffffffffffffffffffffffffffff166002600084815260200190815260200160002060009054906101000a900473ffffffffffffffffffffffffffffffffffffffff1673ffffffffffffffffffffffffffffffffffffffff1614159050919050565b505050565b505050565b61247b83836127c4565b61248860008484846124cc565b6124c7576040517f08c379a00000000000000000000000000000000000000000000000000000000081526004016124be90613501565b60405180910390fd5b505050565b60006124ed8473ffffffffffffffffffffffffffffffffffffffff1661299e565b15612656578373ffffffffffffffffffffffffffffffffffffffff1663150b7a02612516611ce4565b8786866040518563ffffffff1660e01b815260040161253894939291906133ed565b602060405180830381600087803b15801561255257600080fd5b505af192505050801561258357506040513d601f19601f820116820180604052508101906125809190612e01565b60015b612606573d80600081146125b3576040519150601f19603f3d011682016040523d82523d6000602084013e6125b8565b606091505b506000815114156125fe576040517f08c379a00000000000000000000000000000000000000000000000000000000081526004016125f590613501565b60405180910390fd5b805181602001fd5b63150b7a0260e01b7bffffffffffffffffffffffffffffffffffffffffffffffffffffffff1916817bffffffffffffffffffffffffffffffffffffffffffffffffffffffff19161491505061265b565b600190505b949350505050565b606060008214156126ab576040518060400160405280600181526020017f300000000000000000000000000000000000000000000000000000000000000081525090506127bf565b600082905060005b600082146126dd5780806126c6906139e4565b915050600a826126d69190613866565b91506126b3565b60008167ffffffffffffffff8111156126f9576126f8613b1a565b5b6040519080825280601f01601f19166020018201604052801561272b5781602001600182028036833780820191505090505b5090505b600085146127b8576001826127449190613897565b9150600a856127539190613a2d565b603061275f9190613810565b60f81b81838151811061277557612774613aeb565b5b60200101907effffffffffffffffffffffffffffffffffffffffffffffffffffffffffffff1916908160001a905350600a856127b19190613866565b945061272f565b8093505050505b919050565b600073ffffffffffffffffffffffffffffffffffffffff168273ffffffffffffffffffffffffffffffffffffffff161415612834576040517f08c379a000000000000000000000000000000000000000000000000000000000815260040161282b90613641565b60405180910390fd5b61283d816123fb565b1561287d576040517f08c379a000000000000000000000000000000000000000000000000000000000815260040161287490613541565b60405180910390fd5b61288960008383612467565b6001600360008473ffffffffffffffffffffffffffffffffffffffff1673ffffffffffffffffffffffffffffffffffffffff16815260200190815260200160002060008282546128d99190613810565b92505081905550816002600083815260200190815260200160002060006101000a81548173ffffffffffffffffffffffffffffffffffffffff021916908373ffffffffffffffffffffffffffffffffffffffff160217905550808273ffffffffffffffffffffffffffffffffffffffff16600073ffffffffffffffffffffffffffffffffffffffff167fddf252ad1be2c89b69c2b068fc378daa952ba7f163c4a11628f55a4df523b3ef60405160405180910390a461299a6000838361246c565b5050565b6000808273ffffffffffffffffffffffffffffffffffffffff163b119050919050565b6040518060c001604052806000815260200160608152602001600073ffffffffffffffffffffffffffffffffffffffff168152602001600073ffffffffffffffffffffffffffffffffffffffff168152602001600081526020016000151581525090565b828054612a3190613981565b90600052602060002090601f016020900481019282612a535760008555612a9a565b82601f10612a6c57805160ff1916838001178555612a9a565b82800160010185558215612a9a579182015b82811115612a99578251825591602001919060010190612a7e565b5b509050612aa79190612aab565b5090565b5b80821115612ac4576000816000905550600101612aac565b5090565b6000612adb612ad684613721565b6136fc565b905082815260208101848484011115612af757612af6613b4e565b5b612b0284828561393f565b509392505050565b6000612b1d612b1884613752565b6136fc565b905082815260208101848484011115612b3957612b38613b4e565b5b612b4484828561393f565b509392505050565b600081359050612b5b81613fc9565b92915050565b600081359050612b7081613fe0565b92915050565b600081359050612b8581613ff7565b92915050565b600081519050612b9a81613ff7565b92915050565b600082601f830112612bb557612bb4613b49565b5b8135612bc5848260208601612ac8565b91505092915050565b600082601f830112612be357612be2613b49565b5b8135612bf3848260208601612b0a565b91505092915050565b600081359050612c0b8161400e565b92915050565b600060208284031215612c2757612c26613b58565b5b6000612c3584828501612b4c565b91505092915050565b60008060408385031215612c5557612c54613b58565b5b6000612c6385828601612b4c565b9250506020612c7485828601612b4c565b9150509250929050565b600080600060608486031215612c9757612c96613b58565b5b6000612ca586828701612b4c565b9350506020612cb686828701612b4c565b9250506040612cc786828701612bfc565b9150509250925092565b60008060008060808587031215612ceb57612cea613b58565b5b6000612cf987828801612b4c565b9450506020612d0a87828801612b4c565b9350506040612d1b87828801612bfc565b925050606085013567ffffffffffffffff811115612d3c57612d3b613b53565b5b612d4887828801612ba0565b91505092959194509250565b60008060408385031215612d6b57612d6a613b58565b5b6000612d7985828601612b4c565b9250506020612d8a85828601612b61565b9150509250929050565b60008060408385031215612dab57612daa613b58565b5b6000612db985828601612b4c565b9250506020612dca85828601612bfc565b9150509250929050565b600060208284031215612dea57612de9613b58565b5b6000612df884828501612b76565b91505092915050565b600060208284031215612e1757612e16613b58565b5b6000612e2584828501612b8b565b91505092915050565b60008060408385031215612e4557612e44613b58565b5b600083013567ffffffffffffffff811115612e6357612e62613b53565b5b612e6f85828601612bce565b925050602083013567ffffffffffffffff811115612e9057612e8f613b53565b5b612e9c85828601612bce565b9150509250929050565b600060208284031215612ebc57612ebb613b58565b5b6000612eca84828501612bfc565b91505092915050565b60008060408385031215612eea57612ee9613b58565b5b6000612ef885828601612bfc565b9250506020612f0985828601612bfc565b9150509250929050565b6000612f1f8383613307565b905092915050565b612f30816138cb565b82525050565b612f3f816138cb565b82525050565b6000612f5082613793565b612f5a81856137c1565b935083602082028501612f6c85613783565b8060005b85811015612fa85784840389528151612f898582612f13565b9450612f94836137b4565b925060208a01995050600181019050612f70565b50829750879550505050505092915050565b612fc3816138dd565b82525050565b612fd2816138dd565b82525050565b6000612fe38261379e565b612fed81856137d2565b9350612ffd81856020860161394e565b61300681613b5d565b840191505092915050565b600061301c826137a9565b61302681856137e3565b935061303681856020860161394e565b61303f81613b5d565b840191505092915050565b6000613055826137a9565b61305f81856137f4565b935061306f81856020860161394e565b61307881613b5d565b840191505092915050565b600061308e826137a9565b6130988185613805565b93506130a881856020860161394e565b80840191505092915050565b60006130c16022836137f4565b91506130cc82613b6e565b604082019050919050565b60006130e4601b836137f4565b91506130ef82613bbd565b602082019050919050565b60006131076032836137f4565b915061311282613be6565b604082019050919050565b600061312a6025836137f4565b915061313582613c35565b604082019050919050565b600061314d601c836137f4565b915061315882613c84565b602082019050919050565b60006131706031836137f4565b915061317b82613cad565b604082019050919050565b60006131936019836137f4565b915061319e82613cfc565b602082019050919050565b60006131b66024836137f4565b91506131c182613d25565b604082019050919050565b60006131d96019836137f4565b91506131e482613d74565b602082019050919050565b60006131fc6029836137f4565b915061320782613d9d565b604082019050919050565b600061321f602e836137f4565b915061322a82613dec565b604082019050919050565b6000613242603e836137f4565b915061324d82613e3b565b604082019050919050565b60006132656020836137f4565b915061327082613e8a565b602082019050919050565b60006132886018836137f4565b915061329382613eb3565b602082019050919050565b60006132ab6021836137f4565b91506132b682613edc565b604082019050919050565b60006132ce602e836137f4565b91506132d982613f2b565b604082019050919050565b60006132f16021836137f4565b91506132fc82613f7a565b604082019050919050565b600060c08301600083015161331f6000860182613390565b50602083015184820360208601526133378282613011565b915050604083015161334c6040860182612f27565b50606083015161335f6060860182612f27565b5060808301516133726080860182613390565b5060a083015161338560a0860182612fba565b508091505092915050565b61339981613935565b82525050565b6133a881613935565b82525050565b60006133ba8285613083565b91506133c68284613083565b91508190509392505050565b60006020820190506133e76000830184612f36565b92915050565b60006080820190506134026000830187612f36565b61340f6020830186612f36565b61341c604083018561339f565b818103606083015261342e8184612fd8565b905095945050505050565b600060408201905061344e6000830185612f36565b61345b602083018461339f565b9392505050565b6000602082019050818103600083015261347c8184612f45565b905092915050565b60006020820190506134996000830184612fc9565b92915050565b600060208201905081810360008301526134b9818461304a565b905092915050565b600060208201905081810360008301526134da816130b4565b9050919050565b600060208201905081810360008301526134fa816130d7565b9050919050565b6000602082019050818103600083015261351a816130fa565b9050919050565b6000602082019050818103600083015261353a8161311d565b9050919050565b6000602082019050818103600083015261355a81613140565b9050919050565b6000602082019050818103600083015261357a81613163565b9050919050565b6000602082019050818103600083015261359a81613186565b9050919050565b600060208201905081810360008301526135ba816131a9565b9050919050565b600060208201905081810360008301526135da816131cc565b9050919050565b600060208201905081810360008301526135fa816131ef565b9050919050565b6000602082019050818103600083015261361a81613212565b9050919050565b6000602082019050818103600083015261363a81613235565b9050919050565b6000602082019050818103600083015261365a81613258565b9050919050565b6000602082019050818103600083015261367a8161327b565b9050919050565b6000602082019050818103600083015261369a8161329e565b9050919050565b600060208201905081810360008301526136ba816132c1565b9050919050565b600060208201905081810360008301526136da816132e4565b9050919050565b60006020820190506136f6600083018461339f565b92915050565b6000613706613717565b905061371282826139b3565b919050565b6000604051905090565b600067ffffffffffffffff82111561373c5761373b613b1a565b5b61374582613b5d565b9050602081019050919050565b600067ffffffffffffffff82111561376d5761376c613b1a565b5b61377682613b5d565b9050602081019050919050565b6000819050602082019050919050565b600081519050919050565b600081519050919050565b600081519050919050565b6000602082019050919050565b600082825260208201905092915050565b600082825260208201905092915050565b600082825260208201905092915050565b600082825260208201905092915050565b600081905092915050565b600061381b82613935565b915061382683613935565b9250827fffffffffffffffffffffffffffffffffffffffffffffffffffffffffffffffff0382111561385b5761385a613a5e565b5b828201905092915050565b600061387182613935565b915061387c83613935565b92508261388c5761388b613a8d565b5b828204905092915050565b60006138a282613935565b91506138ad83613935565b9250828210156138c0576138bf613a5e565b5b828203905092915050565b60006138d682613915565b9050919050565b60008115159050919050565b60007fffffffff0000000000000000000000000000000000000000000000000000000082169050919050565b600073ffffffffffffffffffffffffffffffffffffffff82169050919050565b6000819050919050565b82818337600083830152505050565b60005b8381101561396c578082015181840152602081019050613951565b8381111561397b576000848401525b50505050565b6000600282049050600182168061399957607f821691505b602082108114156139ad576139ac613abc565b5b50919050565b6139bc82613b5d565b810181811067ffffffffffffffff821117156139db576139da613b1a565b5b80604052505050565b60006139ef82613935565b91507fffffffffffffffffffffffffffffffffffffffffffffffffffffffffffffffff821415613a2257613a21613a5e565b5b600182019050919050565b6000613a3882613935565b9150613a4383613935565b925082613a5357613a52613a8d565b5b828206905092915050565b7f4e487b7100000000000000000000000000000000000000000000000000000000600052601160045260246000fd5b7f4e487b7100000000000000000000000000000000000000000000000000000000600052601260045260246000fd5b7f4e487b7100000000000000000000000000000000000000000000000000000000600052602260045260246000fd5b7f4e487b7100000000000000000000000000000000000000000000000000000000600052603260045260246000fd5b7f4e487b7100000000000000000000000000000000000000000000000000000000600052604160045260246000fd5b600080fd5b600080fd5b600080fd5b600080fd5b6000601f19601f8301169050919050565b7f4e6f7420656e6f75676820657468657220746f206c6973742074686520746f6b60008201527f656e000000000000000000000000000000000000000000000000000000000000602082015250565b7f436f756e7465723a2064656372656d656e74206f766572666c6f770000000000600082015250565b7f4552433732313a207472616e7366657220746f206e6f6e20455243373231526560008201527f63656976657220696d706c656d656e7465720000000000000000000000000000602082015250565b7f4552433732313a207472616e736665722066726f6d20696e636f72726563742060008201527f6f776e6572000000000000000000000000000000000000000000000000000000602082015250565b7f4552433732313a20746f6b656e20616c7265616479206d696e74656400000000600082015250565b7f4f6e6c792074686520636f6e7472616374206465706c6f7965722063616e206360008201527f616c6c20746869732066756e6374696f6e000000000000000000000000000000602082015250565b7f43616e27742062757920616e20756e6c6973746564204e467400000000000000600082015250565b7f4552433732313a207472616e7366657220746f20746865207a65726f2061646460008201527f7265737300000000000000000000000000000000000000000000000000000000602082015250565b7f4552433732313a20617070726f766520746f2063616c6c657200000000000000600082015250565b7f4552433732313a2061646472657373207a65726f206973206e6f74206120766160008201527f6c6964206f776e65720000000000000000000000000000000000000000000000602082015250565b7f45524337323155524953746f726167653a2055524920736574206f66206e6f6e60008201527f6578697374656e7420746f6b656e000000000000000000000000000000000000602082015250565b7f4552433732313a20617070726f76652063616c6c6572206973206e6f7420746f60008201527f6b656e206f776e6572206e6f7220617070726f76656420666f7220616c6c0000602082015250565b7f4552433732313a206d696e7420746f20746865207a65726f2061646472657373600082015250565b7f4552433732313a20696e76616c696420746f6b656e2049440000000000000000600082015250565b7f4552433732313a20617070726f76616c20746f2063757272656e74206f776e6560008201527f7200000000000000000000000000000000000000000000000000000000000000602082015250565b7f4552433732313a2063616c6c6572206973206e6f7420746f6b656e206f776e6560008201527f72206e6f7220617070726f766564000000000000000000000000000000000000602082015250565b7f4e6f7420656e6f75676820657468657220746f206275792074686520746f6b6560008201527f6e00000000000000000000000000000000000000000000000000000000000000602082015250565b613fd2816138cb565b8114613fdd57600080fd5b50565b613fe9816138dd565b8114613ff457600080fd5b50565b614000816138e9565b811461400b57600080fd5b50565b61401781613935565b811461402257600080fd5b5056fea2646970667358221220dafa9604261bb9240c0b8abc6d0f779fc26b7178ac42ff39918378c89b67f37c64736f6c63430008050033",
  "linkReferences": {},
  "deployedLinkReferences": {}
}