{
  "_format": "hh-sol-artifact-1",
  "contractName": "MarketPlace",
  "sourceName": "contracts/MarketPlace.sol",
  "abi": [
    {
      "inputs": [],
      "stateMutability": "nonpayable",
      "type": "constructor"
    },
    {
      "anonymous": false,
      "inputs": [
        {
          "indexed": true,
          "internalType": "address",
          "name": "owner",
          "type": "address"
        },
        {
          "indexed": true,
          "internalType": "address",
          "name": "approved",
          "type": "address"
        },
        {
          "indexed": true,
          "internalType": "uint256",
          "name": "tokenId",
          "type": "uint256"
        }
      ],
      "name": "Approval",
      "type": "event"
    },
    {
      "anonymous": false,
      "inputs": [
        {
          "indexed": true,
          "internalType": "address",
          "name": "owner",
          "type": "address"
        },
        {
          "indexed": true,
          "internalType": "address",
          "name": "operator",
          "type": "address"
        },
        {
          "indexed": false,
          "internalType": "bool",
          "name": "approved",
          "type": "bool"
        }
      ],
      "name": "ApprovalForAll",
      "type": "event"
    },
    {
      "anonymous": false,
      "inputs": [
        {
          "indexed": true,
          "internalType": "uint256",
          "name": "tokenId",
          "type": "uint256"
        },
        {
          "indexed": false,
          "internalType": "address",
          "name": "listedBy",
          "type": "address"
        },
        {
          "indexed": false,
          "internalType": "uint256",
          "name": "price",
          "type": "uint256"
        }
      ],
      "name": "TokenListingSuccess",
      "type": "event"
    },
    {
      "anonymous": false,
      "inputs": [
        {
          "indexed": true,
          "internalType": "address",
          "name": "from",
          "type": "address"
        },
        {
          "indexed": true,
          "internalType": "address",
          "name": "to",
          "type": "address"
        },
        {
          "indexed": true,
          "internalType": "uint256",
          "name": "tokenId",
          "type": "uint256"
        }
      ],
      "name": "Transfer",
      "type": "event"
    },
    {
      "inputs": [
        {
          "internalType": "address",
          "name": "to",
          "type": "address"
        },
        {
          "internalType": "uint256",
          "name": "tokenId",
          "type": "uint256"
        }
      ],
      "name": "approve",
      "outputs": [],
      "stateMutability": "nonpayable",
      "type": "function"
    },
    {
      "inputs": [
        {
          "internalType": "address",
          "name": "owner",
          "type": "address"
        }
      ],
      "name": "balanceOf",
      "outputs": [
        {
          "internalType": "uint256",
          "name": "",
          "type": "uint256"
        }
      ],
      "stateMutability": "view",
      "type": "function"
    },
    {
      "inputs": [
        {
          "internalType": "uint256",
          "name": "tokenId",
          "type": "uint256"
        }
      ],
      "name": "buyToken",
      "outputs": [],
      "stateMutability": "payable",
      "type": "function"
    },
    {
      "inputs": [],
      "name": "countOFTokens",
      "outputs": [
        {
          "internalType": "uint256",
          "name": "",
          "type": "uint256"
        }
      ],
      "stateMutability": "view",
      "type": "function"
    },
    {
      "inputs": [],
      "name": "countOfListedTokens",
      "outputs": [
        {
          "internalType": "uint256",
          "name": "",
          "type": "uint256"
        }
      ],
      "stateMutability": "view",
      "type": "function"
    },
    {
      "inputs": [
        {
          "internalType": "string",
          "name": "tokenURI",
          "type": "string"
        },
        {
          "internalType": "string",
          "name": "name",
          "type": "string"
        }
      ],
      "name": "createToken",
      "outputs": [
        {
          "internalType": "uint256",
          "name": "",
          "type": "uint256"
        }
      ],
      "stateMutability": "nonpayable",
      "type": "function"
    },
    {
      "inputs": [],
      "name": "getAllTokens",
      "outputs": [
        {
          "components": [
            {
              "internalType": "uint256",
              "name": "tokenId",
              "type": "uint256"
            },
            {
              "internalType": "string",
              "name": "name",
              "type": "string"
            },
            {
              "internalType": "address",
              "name": "currOwner",
              "type": "address"
            },
            {
              "internalType": "address",
              "name": "prevOwner",
              "type": "address"
            },
            {
              "internalType": "uint256",
              "name": "price",
              "type": "uint256"
            },
            {
              "internalType": "bool",
              "name": "currentlyListed",
              "type": "bool"
            }
          ],
          "internalType": "struct MarketPlace.NFT[]",
          "name": "",
          "type": "tuple[]"
        }
      ],
      "stateMutability": "view",
      "type": "function"
    },
    {
      "inputs": [
        {
          "internalType": "uint256",
          "name": "tokenId",
          "type": "uint256"
        }
      ],
      "name": "getApproved",
      "outputs": [
        {
          "internalType": "address",
          "name": "",
          "type": "address"
        }
      ],
      "stateMutability": "view",
      "type": "function"
    },
    {
      "inputs": [],
      "name": "getListedTokens",
      "outputs": [
        {
          "components": [
            {
              "internalType": "uint256",
              "name": "tokenId",
              "type": "uint256"
            },
            {
              "internalType": "string",
              "name": "name",
              "type": "string"
            },
            {
              "internalType": "address",
              "name": "currOwner",
              "type": "address"
            },
            {
              "internalType": "address",
              "name": "prevOwner",
              "type": "address"
            },
            {
              "internalType": "uint256",
              "name": "price",
              "type": "uint256"
            },
            {
              "internalType": "bool",
              "name": "currentlyListed",
              "type": "bool"
            }
          ],
          "internalType": "struct MarketPlace.NFT[]",
          "name": "",
          "type": "tuple[]"
        }
      ],
      "stateMutability": "view",
      "type": "function"
    },
    {
      "inputs": [],
      "name": "getListingPrice",
      "outputs": [
        {
          "internalType": "uint256",
          "name": "",
          "type": "uint256"
        }
      ],
      "stateMutability": "view",
      "type": "function"
    },
    {
      "inputs": [
        {
          "internalType": "address",
          "name": "user",
          "type": "address"
        }
      ],
      "name": "getMyTokens",
      "outputs": [
        {
          "components": [
            {
              "internalType": "uint256",
              "name": "tokenId",
              "type": "uint256"
            },
            {
              "internalType": "string",
              "name": "name",
              "type": "string"
            },
            {
              "internalType": "address",
              "name": "currOwner",
              "type": "address"
            },
            {
              "internalType": "address",
              "name": "prevOwner",
              "type": "address"
            },
            {
              "internalType": "uint256",
              "name": "price",
              "type": "uint256"
            },
            {
              "internalType": "bool",
              "name": "currentlyListed",
              "type": "bool"
            }
          ],
          "internalType": "struct MarketPlace.NFT[]",
          "name": "",
          "type": "tuple[]"
        }
      ],
      "stateMutability": "view",
      "type": "function"
    },
    {
      "inputs": [
        {
          "internalType": "address",
          "name": "owner",
          "type": "address"
        },
        {
          "internalType": "address",
          "name": "operator",
          "type": "address"
        }
      ],
      "name": "isApprovedForAll",
      "outputs": [
        {
          "internalType": "bool",
          "name": "",
          "type": "bool"
        }
      ],
      "stateMutability": "view",
      "type": "function"
    },
    {
      "inputs": [
        {
          "internalType": "uint256",
          "name": "tokenId",
          "type": "uint256"
        },
        {
          "internalType": "uint256",
          "name": "price",
          "type": "uint256"
        }
      ],
      "name": "listToken",
      "outputs": [],
      "stateMutability": "payable",
      "type": "function"
    },
    {
      "inputs": [],
      "name": "name",
      "outputs": [
        {
          "internalType": "string",
          "name": "",
          "type": "string"
        }
      ],
      "stateMutability": "view",
      "type": "function"
    },
    {
      "inputs": [
        {
          "internalType": "uint256",
          "name": "tokenId",
          "type": "uint256"
        }
      ],
      "name": "ownerOf",
      "outputs": [
        {
          "internalType": "address",
          "name": "",
          "type": "address"
        }
      ],
      "stateMutability": "view",
      "type": "function"
    },
    {
      "inputs": [
        {
          "internalType": "address",
          "name": "from",
          "type": "address"
        },
        {
          "internalType": "address",
          "name": "to",
          "type": "address"
        },
        {
          "internalType": "uint256",
          "name": "tokenId",
          "type": "uint256"
        }
      ],
      "name": "safeTransferFrom",
      "outputs": [],
      "stateMutability": "nonpayable",
      "type": "function"
    },
    {
      "inputs": [
        {
          "internalType": "address",
          "name": "from",
          "type": "address"
        },
        {
          "internalType": "address",
          "name": "to",
          "type": "address"
        },
        {
          "internalType": "uint256",
          "name": "tokenId",
          "type": "uint256"
        },
        {
          "internalType": "bytes",
          "name": "data",
          "type": "bytes"
        }
      ],
      "name": "safeTransferFrom",
      "outputs": [],
      "stateMutability": "nonpayable",
      "type": "function"
    },
    {
      "inputs": [
        {
          "internalType": "address",
          "name": "operator",
          "type": "address"
        },
        {
          "internalType": "bool",
          "name": "approved",
          "type": "bool"
        }
      ],
      "name": "setApprovalForAll",
      "outputs": [],
      "stateMutability": "nonpayable",
      "type": "function"
    },
    {
      "inputs": [
        {
          "internalType": "bytes4",
          "name": "interfaceId",
          "type": "bytes4"
        }
      ],
      "name": "supportsInterface",
      "outputs": [
        {
          "internalType": "bool",
          "name": "",
          "type": "bool"
        }
      ],
      "stateMutability": "view",
      "type": "function"
    },
    {
      "inputs": [],
      "name": "symbol",
      "outputs": [
        {
          "internalType": "string",
          "name": "",
          "type": "string"
        }
      ],
      "stateMutability": "view",
      "type": "function"
    },
    {
      "inputs": [
        {
          "internalType": "uint256",
          "name": "tokenId",
          "type": "uint256"
        }
      ],
      "name": "tokenURI",
      "outputs": [
        {
          "internalType": "string",
          "name": "",
          "type": "string"
        }
      ],
      "stateMutability": "view",
      "type": "function"
    },
    {
      "inputs": [
        {
          "internalType": "address",
          "name": "from",
          "type": "address"
        },
        {
          "internalType": "address",
          "name": "to",
          "type": "address"
        },
        {
          "internalType": "uint256",
          "name": "tokenId",
          "type": "uint256"
        }
      ],
      "name": "transferFrom",
      "outputs": [],
      "stateMutability": "nonpayable",
      "type": "function"
    },
    {
      "inputs": [
        {
          "internalType": "uint256",
          "name": "newPrice",
          "type": "uint256"
        }
      ],
      "name": "updateListPrice",
      "outputs": [],
      "stateMutability": "nonpayable",
      "type": "function"
    },
    {
      "inputs": [
        {
          "internalType": "uint256",
          "name": "tokenId",
          "type": "uint256"
        },
        {
          "internalType": "uint256",
          "name": "newPrice",
          "type": "uint256"
        }
      ],
      "name": "updateTokenPrice",
      "outputs": [],
      "stateMutability": "nonpayable",
      "type": "function"
    }
  ],
  "bytecode": "0x60806040523480156200001157600080fd5b506040518060400160405280600981526020017f736b614d61726b657400000000000000000000000000000000000000000000008152506040518060400160405280600381526020017f534b41000000000000000000000000000000000000000000000000000000000081525081600090805190602001906200009692919062000107565b508060019080519060200190620000af92919062000107565b50505033600760006101000a81548173ffffffffffffffffffffffffffffffffffffffff021916908373ffffffffffffffffffffffffffffffffffffffff16021790555066038d7ea4c68000600a819055506200021c565b8280546200011590620001b7565b90600052602060002090601f01602090048101928262000139576000855562000185565b82601f106200015457805160ff191683800117855562000185565b8280016001018555821562000185579182015b828111156200018457825182559160200191906001019062000167565b5b50905062000194919062000198565b5090565b5b80821115620001b357600081600090555060010162000199565b5090565b60006002820490506001821680620001d057607f821691505b60208210811415620001e757620001e6620001ed565b5b50919050565b7f4e487b7100000000000000000000000000000000000000000000000000000000600052602260045260246000fd5b614051806200022c6000396000f3fe60806040526004361061014b5760003560e01c80636352211e116100b6578063a22cb4651161006f578063a22cb4651461049c578063b88d4fde146104c5578063bc5557c6146104ee578063c322579c14610519578063c87b56dd14610542578063e985e9c51461057f5761014b565b80636352211e1461038757806370a08231146103c457806375c1631d14610401578063897925f51461041d5780638a2221ad1461044657806395d89b41146104715761014b565b806323b872dd1161010857806323b872dd146102865780632a5c792a146102af5780632ba996a5146102da5780632d296bf1146103055780632f2f2d561461032157806342842e0e1461035e5761014b565b806301ffc9a71461015057806306fdde031461018d578063081812fc146101b8578063095ea7b3146101f557806312e855851461021e5780631751659214610249575b600080fd5b34801561015c57600080fd5b5061017760048036038101906101729190612dca565b6105bc565b604051610184919061347a565b60405180910390f35b34801561019957600080fd5b506101a261069e565b6040516101af9190613495565b60405180910390f35b3480156101c457600080fd5b506101df60048036038101906101da9190612e9c565b610730565b6040516101ec91906133c8565b60405180910390f35b34801561020157600080fd5b5061021c60048036038101906102179190612d8a565b610776565b005b34801561022a57600080fd5b5061023361088e565b60405161024091906136d7565b60405180910390f35b34801561025557600080fd5b50610270600480360381019061026b9190612c07565b610898565b60405161027d9190613458565b60405180910390f35b34801561029257600080fd5b506102ad60048036038101906102a89190612c74565b610be7565b005b3480156102bb57600080fd5b506102c4610c47565b6040516102d19190613458565b60405180910390f35b3480156102e657600080fd5b506102ef610e82565b6040516102fc9190613458565b60405180910390f35b61031f600480360381019061031a9190612e9c565b611117565b005b34801561032d57600080fd5b5061034860048036038101906103439190612e24565b61135a565b60405161035591906136d7565b60405180910390f35b34801561036a57600080fd5b5061038560048036038101906103809190612c74565b6114e5565b005b34801561039357600080fd5b506103ae60048036038101906103a99190612e9c565b611505565b6040516103bb91906133c8565b60405180910390f35b3480156103d057600080fd5b506103eb60048036038101906103e69190612c07565b6115b7565b6040516103f891906136d7565b60405180910390f35b61041b60048036038101906104169190612ec9565b61166f565b005b34801561042957600080fd5b50610444600480360381019061043f9190612ec9565b611825565b005b34801561045257600080fd5b5061045b6118b8565b60405161046891906136d7565b60405180910390f35b34801561047d57600080fd5b506104866118c9565b6040516104939190613495565b60405180910390f35b3480156104a857600080fd5b506104c360048036038101906104be9190612d4a565b61195b565b005b3480156104d157600080fd5b506104ec60048036038101906104e79190612cc7565b611971565b005b3480156104fa57600080fd5b506105036119d3565b60405161051091906136d7565b60405180910390f35b34801561052557600080fd5b50610540600480360381019061053b9190612e9c565b6119e4565b005b34801561054e57600080fd5b5061056960048036038101906105649190612e9c565b611a7e565b6040516105769190613495565b60405180910390f35b34801561058b57600080fd5b506105a660048036038101906105a19190612c34565b611b91565b6040516105b3919061347a565b60405180910390f35b60007f80ac58cd000000000000000000000000000000000000000000000000000000007bffffffffffffffffffffffffffffffffffffffffffffffffffffffff1916827bffffffffffffffffffffffffffffffffffffffffffffffffffffffff1916148061068757507f5b5e139f000000000000000000000000000000000000000000000000000000007bffffffffffffffffffffffffffffffffffffffffffffffffffffffff1916827bffffffffffffffffffffffffffffffffffffffffffffffffffffffff1916145b80610697575061069682611c25565b5b9050919050565b6060600080546106ad90613977565b80601f01602080910402602001604051908101604052809291908181526020018280546106d990613977565b80156107265780601f106106fb57610100808354040283529160200191610726565b820191906000526020600020905b81548152906001019060200180831161070957829003601f168201915b5050505050905090565b600061073b82611c8f565b6004600083815260200190815260200160002060009054906101000a900473ffffffffffffffffffffffffffffffffffffffff169050919050565b600061078182611505565b90508073ffffffffffffffffffffffffffffffffffffffff168373ffffffffffffffffffffffffffffffffffffffff1614156107f2576040517f08c379a00000000000000000000000000000000000000000000000000000000081526004016107e990613677565b60405180910390fd5b8073ffffffffffffffffffffffffffffffffffffffff16610811611cda565b73ffffffffffffffffffffffffffffffffffffffff161480610840575061083f8161083a611cda565b611b91565b5b61087f576040517f08c379a000000000000000000000000000000000000000000000000000000000815260040161087690613617565b60405180910390fd5b6108898383611ce2565b505050565b6000600a54905090565b606060006108a66008611d9b565b90506000805b82811015610940578473ffffffffffffffffffffffffffffffffffffffff16600b600083815260200190815260200160002060020160009054906101000a900473ffffffffffffffffffffffffffffffffffffffff1673ffffffffffffffffffffffffffffffffffffffff16141561092d578180610929906139da565b9250505b8080610938906139da565b9150506108ac565b5060008167ffffffffffffffff81111561095d5761095c613b10565b5b60405190808252806020026020018201604052801561099657816020015b6109836129b7565b81526020019060019003908161097b5790505b5090506000805b84811015610bda578673ffffffffffffffffffffffffffffffffffffffff16600b600083815260200190815260200160002060020160009054906101000a900473ffffffffffffffffffffffffffffffffffffffff1673ffffffffffffffffffffffffffffffffffffffff161415610bc757600b60008281526020019081526020016000206040518060c001604052908160008201548152602001600182018054610a4790613977565b80601f0160208091040260200160405190810160405280929190818152602001828054610a7390613977565b8015610ac05780601f10610a9557610100808354040283529160200191610ac0565b820191906000526020600020905b815481529060010190602001808311610aa357829003601f168201915b505050505081526020016002820160009054906101000a900473ffffffffffffffffffffffffffffffffffffffff1673ffffffffffffffffffffffffffffffffffffffff1673ffffffffffffffffffffffffffffffffffffffff1681526020016003820160009054906101000a900473ffffffffffffffffffffffffffffffffffffffff1673ffffffffffffffffffffffffffffffffffffffff1673ffffffffffffffffffffffffffffffffffffffff168152602001600482015481526020016005820160009054906101000a900460ff161515151581525050838381518110610bad57610bac613ae1565b5b60200260200101819052508180610bc3906139da565b9250505b8080610bd2906139da565b91505061099d565b5081945050505050919050565b610bf8610bf2611cda565b82611da9565b610c37576040517f08c379a0000000000000000000000000000000000000000000000000000000008152600401610c2e90613697565b60405180910390fd5b610c42838383611e3e565b505050565b60606000610c556008611d9b565b905060008167ffffffffffffffff811115610c7357610c72613b10565b5b604051908082528060200260200182016040528015610cac57816020015b610c996129b7565b815260200190600190039081610c915790505b5090506000600190505b828111610e7957600b60008281526020019081526020016000206040518060c001604052908160008201548152602001600182018054610cf590613977565b80601f0160208091040260200160405190810160405280929190818152602001828054610d2190613977565b8015610d6e5780601f10610d4357610100808354040283529160200191610d6e565b820191906000526020600020905b815481529060010190602001808311610d5157829003601f168201915b505050505081526020016002820160009054906101000a900473ffffffffffffffffffffffffffffffffffffffff1673ffffffffffffffffffffffffffffffffffffffff1673ffffffffffffffffffffffffffffffffffffffff1681526020016003820160009054906101000a900473ffffffffffffffffffffffffffffffffffffffff1673ffffffffffffffffffffffffffffffffffffffff1673ffffffffffffffffffffffffffffffffffffffff168152602001600482015481526020016005820160009054906101000a900460ff161515151581525050828281518110610e5b57610e5a613ae1565b5b60200260200101819052508080610e71906139da565b915050610cb6565b50809250505090565b60606000610e906008611d9b565b90506000610e9e6009611d9b565b905060008167ffffffffffffffff811115610ebc57610ebb613b10565b5b604051908082528060200260200182016040528015610ef557816020015b610ee26129b7565b815260200190600190039081610eda5790505b5090506000600190506000600190505b84811161110c57600b6000600183610f1d9190613806565b815260200190815260200160002060050160009054906101000a900460ff16156110f957600b60008281526020019081526020016000206040518060c001604052908160008201548152602001600182018054610f7990613977565b80601f0160208091040260200160405190810160405280929190818152602001828054610fa590613977565b8015610ff25780601f10610fc757610100808354040283529160200191610ff2565b820191906000526020600020905b815481529060010190602001808311610fd557829003601f168201915b505050505081526020016002820160009054906101000a900473ffffffffffffffffffffffffffffffffffffffff1673ffffffffffffffffffffffffffffffffffffffff1673ffffffffffffffffffffffffffffffffffffffff1681526020016003820160009054906101000a900473ffffffffffffffffffffffffffffffffffffffff1673ffffffffffffffffffffffffffffffffffffffff1673ffffffffffffffffffffffffffffffffffffffff168152602001600482015481526020016005820160009054906101000a900460ff1615151515815250508383815181106110df576110de613ae1565b5b602002602001018190525081806110f5906139da565b9250505b8080611104906139da565b915050610f05565b508194505050505090565b6000600b600083815260200190815260200160002060040154905060011515600b600084815260200190815260200160002060050160009054906101000a900460ff1615151461119c576040517f08c379a000000000000000000000000000000000000000000000000000000000815260040161119390613577565b60405180910390fd5b803410156111df576040517f08c379a00000000000000000000000000000000000000000000000000000000081526004016111d6906136b7565b60405180910390fd5b6000600b600084815260200190815260200160002060020160009054906101000a900473ffffffffffffffffffffffffffffffffffffffff169050600033905061122a828286611e3e565b6000600b600086815260200190815260200160002060050160006101000a81548160ff02191690831515021790555080600b600086815260200190815260200160002060020160006101000a81548173ffffffffffffffffffffffffffffffffffffffff021916908373ffffffffffffffffffffffffffffffffffffffff16021790555081600b600086815260200190815260200160002060030160006101000a81548173ffffffffffffffffffffffffffffffffffffffff021916908373ffffffffffffffffffffffffffffffffffffffff16021790555061130d60096120a5565b8173ffffffffffffffffffffffffffffffffffffffff166108fc849081150290604051600060405180830381858888f19350505050158015611353573d6000803e3d6000fd5b5050505050565b60006113666008612101565b60006113726008611d9b565b905061137e3382612117565b6113888185612135565b6040518060c001604052808281526020018481526020013373ffffffffffffffffffffffffffffffffffffffff168152602001600073ffffffffffffffffffffffffffffffffffffffff1681526020016000815260200160001515815250600b600083815260200190815260200160002060008201518160000155602082015181600101908051906020019061141f929190612a1b565b5060408201518160020160006101000a81548173ffffffffffffffffffffffffffffffffffffffff021916908373ffffffffffffffffffffffffffffffffffffffff16021790555060608201518160030160006101000a81548173ffffffffffffffffffffffffffffffffffffffff021916908373ffffffffffffffffffffffffffffffffffffffff1602179055506080820151816004015560a08201518160050160006101000a81548160ff0219169083151502179055509050508091505092915050565b61150083838360405180602001604052806000815250611971565b505050565b6000806002600084815260200190815260200160002060009054906101000a900473ffffffffffffffffffffffffffffffffffffffff169050600073ffffffffffffffffffffffffffffffffffffffff168173ffffffffffffffffffffffffffffffffffffffff1614156115ae576040517f08c379a00000000000000000000000000000000000000000000000000000000081526004016115a590613657565b60405180910390fd5b80915050919050565b60008073ffffffffffffffffffffffffffffffffffffffff168273ffffffffffffffffffffffffffffffffffffffff161415611628576040517f08c379a000000000000000000000000000000000000000000000000000000000815260040161161f906135d7565b60405180910390fd5b600360008373ffffffffffffffffffffffffffffffffffffffff1673ffffffffffffffffffffffffffffffffffffffff168152602001908152602001600020549050919050565b600a543410156116b4576040517f08c379a00000000000000000000000000000000000000000000000000000000081526004016116ab906134b7565b60405180910390fd5b6000600b600084815260200190815260200160002060020160009054906101000a900473ffffffffffffffffffffffffffffffffffffffff1690508073ffffffffffffffffffffffffffffffffffffffff163373ffffffffffffffffffffffffffffffffffffffff161461172757600080fd5b6001600b600085815260200190815260200160002060050160006101000a81548160ff02191690831515021790555081600b60008581526020019081526020016000206004018190555061177b6009612101565b600760009054906101000a900473ffffffffffffffffffffffffffffffffffffffff1673ffffffffffffffffffffffffffffffffffffffff166108fc600a549081150290604051600060405180830381858888f193505050501580156117e5573d6000803e3d6000fd5b50827f77c1432afc94806c26ae3f6e9f65698728ea5f2b7d60d317ea07651d9178f0dc338460405161181892919061342f565b60405180910390a2505050565b6000600b600084815260200190815260200160002060020160009054906101000a900473ffffffffffffffffffffffffffffffffffffffff1690503373ffffffffffffffffffffffffffffffffffffffff168173ffffffffffffffffffffffffffffffffffffffff161461189857600080fd5b81600b600085815260200190815260200160002060040181905550505050565b60006118c46009611d9b565b905090565b6060600180546118d890613977565b80601f016020809104026020016040519081016040528092919081815260200182805461190490613977565b80156119515780601f1061192657610100808354040283529160200191611951565b820191906000526020600020905b81548152906001019060200180831161193457829003601f168201915b5050505050905090565b61196d611966611cda565b83836121a9565b5050565b61198261197c611cda565b83611da9565b6119c1576040517f08c379a00000000000000000000000000000000000000000000000000000000081526004016119b890613697565b60405180910390fd5b6119cd84848484612316565b50505050565b60006119df6008611d9b565b905090565b600760009054906101000a900473ffffffffffffffffffffffffffffffffffffffff1673ffffffffffffffffffffffffffffffffffffffff163373ffffffffffffffffffffffffffffffffffffffff1614611a74576040517f08c379a0000000000000000000000000000000000000000000000000000000008152600401611a6b90613557565b60405180910390fd5b80600a8190555050565b6060611a8982611c8f565b6000600660008481526020019081526020016000208054611aa990613977565b80601f0160208091040260200160405190810160405280929190818152602001828054611ad590613977565b8015611b225780601f10611af757610100808354040283529160200191611b22565b820191906000526020600020905b815481529060010190602001808311611b0557829003601f168201915b505050505090506000611b33612372565b9050600081511415611b49578192505050611b8c565b600082511115611b7e578082604051602001611b669291906133a4565b60405160208183030381529060405292505050611b8c565b611b8784612389565b925050505b919050565b6000600560008473ffffffffffffffffffffffffffffffffffffffff1673ffffffffffffffffffffffffffffffffffffffff16815260200190815260200160002060008373ffffffffffffffffffffffffffffffffffffffff1673ffffffffffffffffffffffffffffffffffffffff16815260200190815260200160002060009054906101000a900460ff16905092915050565b60007f01ffc9a7000000000000000000000000000000000000000000000000000000007bffffffffffffffffffffffffffffffffffffffffffffffffffffffff1916827bffffffffffffffffffffffffffffffffffffffffffffffffffffffff1916149050919050565b611c98816123f1565b611cd7576040517f08c379a0000000000000000000000000000000000000000000000000000000008152600401611cce90613657565b60405180910390fd5b50565b600033905090565b816004600083815260200190815260200160002060006101000a81548173ffffffffffffffffffffffffffffffffffffffff021916908373ffffffffffffffffffffffffffffffffffffffff160217905550808273ffffffffffffffffffffffffffffffffffffffff16611d5583611505565b73ffffffffffffffffffffffffffffffffffffffff167f8c5be1e5ebec7d5bd14f71427d1e84f3dd0314c0f7b2291e5b200ac8c7c3b92560405160405180910390a45050565b600081600001549050919050565b600080611db583611505565b90508073ffffffffffffffffffffffffffffffffffffffff168473ffffffffffffffffffffffffffffffffffffffff161480611df75750611df68185611b91565b5b80611e3557508373ffffffffffffffffffffffffffffffffffffffff16611e1d84610730565b73ffffffffffffffffffffffffffffffffffffffff16145b91505092915050565b8273ffffffffffffffffffffffffffffffffffffffff16611e5e82611505565b73ffffffffffffffffffffffffffffffffffffffff1614611eb4576040517f08c379a0000000000000000000000000000000000000000000000000000000008152600401611eab90613517565b60405180910390fd5b600073ffffffffffffffffffffffffffffffffffffffff168273ffffffffffffffffffffffffffffffffffffffff161415611f24576040517f08c379a0000000000000000000000000000000000000000000000000000000008152600401611f1b90613597565b60405180910390fd5b611f2f83838361245d565b611f3a600082611ce2565b6001600360008573ffffffffffffffffffffffffffffffffffffffff1673ffffffffffffffffffffffffffffffffffffffff1681526020019081526020016000206000828254611f8a919061388d565b925050819055506001600360008473ffffffffffffffffffffffffffffffffffffffff1673ffffffffffffffffffffffffffffffffffffffff1681526020019081526020016000206000828254611fe19190613806565b92505081905550816002600083815260200190815260200160002060006101000a81548173ffffffffffffffffffffffffffffffffffffffff021916908373ffffffffffffffffffffffffffffffffffffffff160217905550808273ffffffffffffffffffffffffffffffffffffffff168473ffffffffffffffffffffffffffffffffffffffff167fddf252ad1be2c89b69c2b068fc378daa952ba7f163c4a11628f55a4df523b3ef60405160405180910390a46120a0838383612462565b505050565b600081600001549050600081116120f1576040517f08c379a00000000000000000000000000000000000000000000000000000000081526004016120e8906134d7565b60405180910390fd5b6001810382600001819055505050565b6001816000016000828254019250508190555050565b612131828260405180602001604052806000815250612467565b5050565b61213e826123f1565b61217d576040517f08c379a0000000000000000000000000000000000000000000000000000000008152600401612174906135f7565b60405180910390fd5b806006600084815260200190815260200160002090805190602001906121a4929190612a1b565b505050565b8173ffffffffffffffffffffffffffffffffffffffff168373ffffffffffffffffffffffffffffffffffffffff161415612218576040517f08c379a000000000000000000000000000000000000000000000000000000000815260040161220f906135b7565b60405180910390fd5b80600560008573ffffffffffffffffffffffffffffffffffffffff1673ffffffffffffffffffffffffffffffffffffffff16815260200190815260200160002060008473ffffffffffffffffffffffffffffffffffffffff1673ffffffffffffffffffffffffffffffffffffffff16815260200190815260200160002060006101000a81548160ff0219169083151502179055508173ffffffffffffffffffffffffffffffffffffffff168373ffffffffffffffffffffffffffffffffffffffff167f17307eab39ab6107e8899845ad3d59bd9653f200f220920489ca2b5937696c3183604051612309919061347a565b60405180910390a3505050565b612321848484611e3e565b61232d848484846124c2565b61236c576040517f08c379a0000000000000000000000000000000000000000000000000000000008152600401612363906134f7565b60405180910390fd5b50505050565b606060405180602001604052806000815250905090565b606061239482611c8f565b600061239e612372565b905060008151116123be57604051806020016040528060008152506123e9565b806123c884612659565b6040516020016123d99291906133a4565b6040516020818303038152906040525b915050919050565b60008073ffffffffffffffffffffffffffffffffffffffff166002600084815260200190815260200160002060009054906101000a900473ffffffffffffffffffffffffffffffffffffffff1673ffffffffffffffffffffffffffffffffffffffff1614159050919050565b505050565b505050565b61247183836127ba565b61247e60008484846124c2565b6124bd576040517f08c379a00000000000000000000000000000000000000000000000000000000081526004016124b4906134f7565b60405180910390fd5b505050565b60006124e38473ffffffffffffffffffffffffffffffffffffffff16612994565b1561264c578373ffffffffffffffffffffffffffffffffffffffff1663150b7a0261250c611cda565b8786866040518563ffffffff1660e01b815260040161252e94939291906133e3565b602060405180830381600087803b15801561254857600080fd5b505af192505050801561257957506040513d601f19601f820116820180604052508101906125769190612df7565b60015b6125fc573d80600081146125a9576040519150601f19603f3d011682016040523d82523d6000602084013e6125ae565b606091505b506000815114156125f4576040517f08c379a00000000000000000000000000000000000000000000000000000000081526004016125eb906134f7565b60405180910390fd5b805181602001fd5b63150b7a0260e01b7bffffffffffffffffffffffffffffffffffffffffffffffffffffffff1916817bffffffffffffffffffffffffffffffffffffffffffffffffffffffff191614915050612651565b600190505b949350505050565b606060008214156126a1576040518060400160405280600181526020017f300000000000000000000000000000000000000000000000000000000000000081525090506127b5565b600082905060005b600082146126d35780806126bc906139da565b915050600a826126cc919061385c565b91506126a9565b60008167ffffffffffffffff8111156126ef576126ee613b10565b5b6040519080825280601f01601f1916602001820160405280156127215781602001600182028036833780820191505090505b5090505b600085146127ae5760018261273a919061388d565b9150600a856127499190613a23565b60306127559190613806565b60f81b81838151811061276b5761276a613ae1565b5b60200101907effffffffffffffffffffffffffffffffffffffffffffffffffffffffffffff1916908160001a905350600a856127a7919061385c565b9450612725565b8093505050505b919050565b600073ffffffffffffffffffffffffffffffffffffffff168273ffffffffffffffffffffffffffffffffffffffff16141561282a576040517f08c379a000000000000000000000000000000000000000000000000000000000815260040161282190613637565b60405180910390fd5b612833816123f1565b15612873576040517f08c379a000000000000000000000000000000000000000000000000000000000815260040161286a90613537565b60405180910390fd5b61287f6000838361245d565b6001600360008473ffffffffffffffffffffffffffffffffffffffff1673ffffffffffffffffffffffffffffffffffffffff16815260200190815260200160002060008282546128cf9190613806565b92505081905550816002600083815260200190815260200160002060006101000a81548173ffffffffffffffffffffffffffffffffffffffff021916908373ffffffffffffffffffffffffffffffffffffffff160217905550808273ffffffffffffffffffffffffffffffffffffffff16600073ffffffffffffffffffffffffffffffffffffffff167fddf252ad1be2c89b69c2b068fc378daa952ba7f163c4a11628f55a4df523b3ef60405160405180910390a461299060008383612462565b5050565b6000808273ffffffffffffffffffffffffffffffffffffffff163b119050919050565b6040518060c001604052806000815260200160608152602001600073ffffffffffffffffffffffffffffffffffffffff168152602001600073ffffffffffffffffffffffffffffffffffffffff168152602001600081526020016000151581525090565b828054612a2790613977565b90600052602060002090601f016020900481019282612a495760008555612a90565b82601f10612a6257805160ff1916838001178555612a90565b82800160010185558215612a90579182015b82811115612a8f578251825591602001919060010190612a74565b5b509050612a9d9190612aa1565b5090565b5b80821115612aba576000816000905550600101612aa2565b5090565b6000612ad1612acc84613717565b6136f2565b905082815260208101848484011115612aed57612aec613b44565b5b612af8848285613935565b509392505050565b6000612b13612b0e84613748565b6136f2565b905082815260208101848484011115612b2f57612b2e613b44565b5b612b3a848285613935565b509392505050565b600081359050612b5181613fbf565b92915050565b600081359050612b6681613fd6565b92915050565b600081359050612b7b81613fed565b92915050565b600081519050612b9081613fed565b92915050565b600082601f830112612bab57612baa613b3f565b5b8135612bbb848260208601612abe565b91505092915050565b600082601f830112612bd957612bd8613b3f565b5b8135612be9848260208601612b00565b91505092915050565b600081359050612c0181614004565b92915050565b600060208284031215612c1d57612c1c613b4e565b5b6000612c2b84828501612b42565b91505092915050565b60008060408385031215612c4b57612c4a613b4e565b5b6000612c5985828601612b42565b9250506020612c6a85828601612b42565b9150509250929050565b600080600060608486031215612c8d57612c8c613b4e565b5b6000612c9b86828701612b42565b9350506020612cac86828701612b42565b9250506040612cbd86828701612bf2565b9150509250925092565b60008060008060808587031215612ce157612ce0613b4e565b5b6000612cef87828801612b42565b9450506020612d0087828801612b42565b9350506040612d1187828801612bf2565b925050606085013567ffffffffffffffff811115612d3257612d31613b49565b5b612d3e87828801612b96565b91505092959194509250565b60008060408385031215612d6157612d60613b4e565b5b6000612d6f85828601612b42565b9250506020612d8085828601612b57565b9150509250929050565b60008060408385031215612da157612da0613b4e565b5b6000612daf85828601612b42565b9250506020612dc085828601612bf2565b9150509250929050565b600060208284031215612de057612ddf613b4e565b5b6000612dee84828501612b6c565b91505092915050565b600060208284031215612e0d57612e0c613b4e565b5b6000612e1b84828501612b81565b91505092915050565b60008060408385031215612e3b57612e3a613b4e565b5b600083013567ffffffffffffffff811115612e5957612e58613b49565b5b612e6585828601612bc4565b925050602083013567ffffffffffffffff811115612e8657612e85613b49565b5b612e9285828601612bc4565b9150509250929050565b600060208284031215612eb257612eb1613b4e565b5b6000612ec084828501612bf2565b91505092915050565b60008060408385031215612ee057612edf613b4e565b5b6000612eee85828601612bf2565b9250506020612eff85828601612bf2565b9150509250929050565b6000612f1583836132fd565b905092915050565b612f26816138c1565b82525050565b612f35816138c1565b82525050565b6000612f4682613789565b612f5081856137b7565b935083602082028501612f6285613779565b8060005b85811015612f9e5784840389528151612f7f8582612f09565b9450612f8a836137aa565b925060208a01995050600181019050612f66565b50829750879550505050505092915050565b612fb9816138d3565b82525050565b612fc8816138d3565b82525050565b6000612fd982613794565b612fe381856137c8565b9350612ff3818560208601613944565b612ffc81613b53565b840191505092915050565b60006130128261379f565b61301c81856137d9565b935061302c818560208601613944565b61303581613b53565b840191505092915050565b600061304b8261379f565b61305581856137ea565b9350613065818560208601613944565b61306e81613b53565b840191505092915050565b60006130848261379f565b61308e81856137fb565b935061309e818560208601613944565b80840191505092915050565b60006130b76022836137ea565b91506130c282613b64565b604082019050919050565b60006130da601b836137ea565b91506130e582613bb3565b602082019050919050565b60006130fd6032836137ea565b915061310882613bdc565b604082019050919050565b60006131206025836137ea565b915061312b82613c2b565b604082019050919050565b6000613143601c836137ea565b915061314e82613c7a565b602082019050919050565b60006131666031836137ea565b915061317182613ca3565b604082019050919050565b60006131896019836137ea565b915061319482613cf2565b602082019050919050565b60006131ac6024836137ea565b91506131b782613d1b565b604082019050919050565b60006131cf6019836137ea565b91506131da82613d6a565b602082019050919050565b60006131f26029836137ea565b91506131fd82613d93565b604082019050919050565b6000613215602e836137ea565b915061322082613de2565b604082019050919050565b6000613238603e836137ea565b915061324382613e31565b604082019050919050565b600061325b6020836137ea565b915061326682613e80565b602082019050919050565b600061327e6018836137ea565b915061328982613ea9565b602082019050919050565b60006132a16021836137ea565b91506132ac82613ed2565b604082019050919050565b60006132c4602e836137ea565b91506132cf82613f21565b604082019050919050565b60006132e76021836137ea565b91506132f282613f70565b604082019050919050565b600060c0830160008301516133156000860182613386565b506020830151848203602086015261332d8282613007565b91505060408301516133426040860182612f1d565b5060608301516133556060860182612f1d565b5060808301516133686080860182613386565b5060a083015161337b60a0860182612fb0565b508091505092915050565b61338f8161392b565b82525050565b61339e8161392b565b82525050565b60006133b08285613079565b91506133bc8284613079565b91508190509392505050565b60006020820190506133dd6000830184612f2c565b92915050565b60006080820190506133f86000830187612f2c565b6134056020830186612f2c565b6134126040830185613395565b81810360608301526134248184612fce565b905095945050505050565b60006040820190506134446000830185612f2c565b6134516020830184613395565b9392505050565b600060208201905081810360008301526134728184612f3b565b905092915050565b600060208201905061348f6000830184612fbf565b92915050565b600060208201905081810360008301526134af8184613040565b905092915050565b600060208201905081810360008301526134d0816130aa565b9050919050565b600060208201905081810360008301526134f0816130cd565b9050919050565b60006020820190508181036000830152613510816130f0565b9050919050565b6000602082019050818103600083015261353081613113565b9050919050565b6000602082019050818103600083015261355081613136565b9050919050565b6000602082019050818103600083015261357081613159565b9050919050565b600060208201905081810360008301526135908161317c565b9050919050565b600060208201905081810360008301526135b08161319f565b9050919050565b600060208201905081810360008301526135d0816131c2565b9050919050565b600060208201905081810360008301526135f0816131e5565b9050919050565b6000602082019050818103600083015261361081613208565b9050919050565b600060208201905081810360008301526136308161322b565b9050919050565b600060208201905081810360008301526136508161324e565b9050919050565b6000602082019050818103600083015261367081613271565b9050919050565b6000602082019050818103600083015261369081613294565b9050919050565b600060208201905081810360008301526136b0816132b7565b9050919050565b600060208201905081810360008301526136d0816132da565b9050919050565b60006020820190506136ec6000830184613395565b92915050565b60006136fc61370d565b905061370882826139a9565b919050565b6000604051905090565b600067ffffffffffffffff82111561373257613731613b10565b5b61373b82613b53565b9050602081019050919050565b600067ffffffffffffffff82111561376357613762613b10565b5b61376c82613b53565b9050602081019050919050565b6000819050602082019050919050565b600081519050919050565b600081519050919050565b600081519050919050565b6000602082019050919050565b600082825260208201905092915050565b600082825260208201905092915050565b600082825260208201905092915050565b600082825260208201905092915050565b600081905092915050565b60006138118261392b565b915061381c8361392b565b9250827fffffffffffffffffffffffffffffffffffffffffffffffffffffffffffffffff0382111561385157613850613a54565b5b828201905092915050565b60006138678261392b565b91506138728361392b565b92508261388257613881613a83565b5b828204905092915050565b60006138988261392b565b91506138a38361392b565b9250828210156138b6576138b5613a54565b5b828203905092915050565b60006138cc8261390b565b9050919050565b60008115159050919050565b60007fffffffff0000000000000000000000000000000000000000000000000000000082169050919050565b600073ffffffffffffffffffffffffffffffffffffffff82169050919050565b6000819050919050565b82818337600083830152505050565b60005b83811015613962578082015181840152602081019050613947565b83811115613971576000848401525b50505050565b6000600282049050600182168061398f57607f821691505b602082108114156139a3576139a2613ab2565b5b50919050565b6139b282613b53565b810181811067ffffffffffffffff821117156139d1576139d0613b10565b5b80604052505050565b60006139e58261392b565b91507fffffffffffffffffffffffffffffffffffffffffffffffffffffffffffffffff821415613a1857613a17613a54565b5b600182019050919050565b6000613a2e8261392b565b9150613a398361392b565b925082613a4957613a48613a83565b5b828206905092915050565b7f4e487b7100000000000000000000000000000000000000000000000000000000600052601160045260246000fd5b7f4e487b7100000000000000000000000000000000000000000000000000000000600052601260045260246000fd5b7f4e487b7100000000000000000000000000000000000000000000000000000000600052602260045260246000fd5b7f4e487b7100000000000000000000000000000000000000000000000000000000600052603260045260246000fd5b7f4e487b7100000000000000000000000000000000000000000000000000000000600052604160045260246000fd5b600080fd5b600080fd5b600080fd5b600080fd5b6000601f19601f8301169050919050565b7f4e6f7420656e6f75676820657468657220746f206c6973742074686520746f6b60008201527f656e000000000000000000000000000000000000000000000000000000000000602082015250565b7f436f756e7465723a2064656372656d656e74206f766572666c6f770000000000600082015250565b7f4552433732313a207472616e7366657220746f206e6f6e20455243373231526560008201527f63656976657220696d706c656d656e7465720000000000000000000000000000602082015250565b7f4552433732313a207472616e736665722066726f6d20696e636f72726563742060008201527f6f776e6572000000000000000000000000000000000000000000000000000000602082015250565b7f4552433732313a20746f6b656e20616c7265616479206d696e74656400000000600082015250565b7f4f6e6c792074686520636f6e7472616374206465706c6f7965722063616e206360008201527f616c6c20746869732066756e6374696f6e000000000000000000000000000000602082015250565b7f43616e27742062757920616e20756e6c6973746564204e467400000000000000600082015250565b7f4552433732313a207472616e7366657220746f20746865207a65726f2061646460008201527f7265737300000000000000000000000000000000000000000000000000000000602082015250565b7f4552433732313a20617070726f766520746f2063616c6c657200000000000000600082015250565b7f4552433732313a2061646472657373207a65726f206973206e6f74206120766160008201527f6c6964206f776e65720000000000000000000000000000000000000000000000602082015250565b7f45524337323155524953746f726167653a2055524920736574206f66206e6f6e60008201527f6578697374656e7420746f6b656e000000000000000000000000000000000000602082015250565b7f4552433732313a20617070726f76652063616c6c6572206973206e6f7420746f60008201527f6b656e206f776e6572206e6f7220617070726f76656420666f7220616c6c0000602082015250565b7f4552433732313a206d696e7420746f20746865207a65726f2061646472657373600082015250565b7f4552433732313a20696e76616c696420746f6b656e2049440000000000000000600082015250565b7f4552433732313a20617070726f76616c20746f2063757272656e74206f776e6560008201527f7200000000000000000000000000000000000000000000000000000000000000602082015250565b7f4552433732313a2063616c6c6572206973206e6f7420746f6b656e206f776e6560008201527f72206e6f7220617070726f766564000000000000000000000000000000000000602082015250565b7f4e6f7420656e6f75676820657468657220746f206275792074686520746f6b6560008201527f6e00000000000000000000000000000000000000000000000000000000000000602082015250565b613fc8816138c1565b8114613fd357600080fd5b50565b613fdf816138d3565b8114613fea57600080fd5b50565b613ff6816138df565b811461400157600080fd5b50565b61400d8161392b565b811461401857600080fd5b5056fea264697066735822122065ee29fb3304161ee8b6af9b14f175d7a46150978ad0f3d1d10f577514c132ac64736f6c63430008050033",
  "linkReferences": {},
  "deployedLinkReferences": {}
}